{"contracts/MinimalForwarder.sol":{"MinimalForwarder":{"abi":[{"inputs":[],"stateMutability":"nonpayable","type":"constructor"},{"inputs":[],"name":"ECDSAInvalidSignature","type":"error"},{"inputs":[{"internalType":"uint256","name":"length","type":"uint256"}],"name":"ECDSAInvalidSignatureLength","type":"error"},{"inputs":[{"internalType":"bytes32","name":"s","type":"bytes32"}],"name":"ECDSAInvalidSignatureS","type":"error"},{"inputs":[],"name":"InvalidShortString","type":"error"},{"inputs":[{"internalType":"string","name":"str","type":"string"}],"name":"StringTooLong","type":"error"},{"anonymous":false,"inputs":[],"name":"EIP712DomainChanged","type":"event"},{"inputs":[],"name":"eip712Domain","outputs":[{"internalType":"bytes1","name":"fields","type":"bytes1"},{"internalType":"string","name":"name","type":"string"},{"internalType":"string","name":"version","type":"string"},{"internalType":"uint256","name":"chainId","type":"uint256"},{"internalType":"address","name":"verifyingContract","type":"address"},{"internalType":"bytes32","name":"salt","type":"bytes32"},{"internalType":"uint256[]","name":"extensions","type":"uint256[]"}],"stateMutability":"view","type":"function"},{"inputs":[{"components":[{"internalType":"address","name":"from","type":"address"},{"internalType":"address","name":"to","type":"address"},{"internalType":"uint256","name":"value","type":"uint256"},{"internalType":"uint256","name":"gas","type":"uint256"},{"internalType":"uint256","name":"nonce","type":"uint256"},{"internalType":"bytes","name":"data","type":"bytes"}],"internalType":"struct MinimalForwarder.ForwardRequest","name":"req","type":"tuple"},{"internalType":"bytes","name":"signature","type":"bytes"}],"name":"execute","outputs":[{"internalType":"bool","name":"","type":"bool"},{"internalType":"bytes","name":"","type":"bytes"}],"stateMutability":"payable","type":"function"},{"inputs":[{"internalType":"address","name":"from","type":"address"}],"name":"getNonce","outputs":[{"internalType":"uint256","name":"","type":"uint256"}],"stateMutability":"view","type":"function"},{"inputs":[{"components":[{"internalType":"address","name":"from","type":"address"},{"internalType":"address","name":"to","type":"address"},{"internalType":"uint256","name":"value","type":"uint256"},{"internalType":"uint256","name":"gas","type":"uint256"},{"internalType":"uint256","name":"nonce","type":"uint256"},{"internalType":"bytes","name":"data","type":"bytes"}],"internalType":"struct MinimalForwarder.ForwardRequest","name":"req","type":"tuple"},{"internalType":"bytes","name":"signature","type":"bytes"}],"name":"verify","outputs":[{"internalType":"bool","name":"","type":"bool"}],"stateMutability":"view","type":"function"}],"evm":{"bytecode":{"linkReferences":{},"object":"6101606040523480156200001257600080fd5b506040518060400160405280601081526020017f4d696e696d616c466f72776172646572000000000000000000000000000000008152506040518060400160405280600581526020017f302e302e31000000000000000000000000000000000000000000000000000000815250620000956000836200013560201b90919060201c565b6101208181525050620000b36001826200013560201b90919060201c565b6101408181525050818051906020012060e08181525050808051906020012061010081815250504660a08181525050620000f26200018d60201b60201c565b608081815250503073ffffffffffffffffffffffffffffffffffffffff1660c08173ffffffffffffffffffffffffffffffffffffffff16815250505050620007e5565b60006020835110156200015b576200015383620001ea60201b60201c565b905062000187565b826200016d836200025760201b60201c565b60000190816200017e9190620004db565b5060ff60001b90505b92915050565b60007f8b73c3c69bb8fe3d512ecc4cf759cc79239f7b179b0ffacaa9a75d522b39400f60e051610100514630604051602001620001cf95949392919062000633565b60405160208183030381529060405280519060200120905090565b600080829050601f815111156200023a57826040517f305a27a90000000000000000000000000000000000000000000000000000000081526004016200023191906200071f565b60405180910390fd5b805181620002489062000775565b60001c1760001b915050919050565b6000819050919050565b600081519050919050565b7f4e487b7100000000000000000000000000000000000000000000000000000000600052604160045260246000fd5b7f4e487b7100000000000000000000000000000000000000000000000000000000600052602260045260246000fd5b60006002820490506001821680620002e357607f821691505b602082108103620002f957620002f86200029b565b5b50919050565b60008190508160005260206000209050919050565b60006020601f8301049050919050565b600082821b905092915050565b600060088302620003637fffffffffffffffffffffffffffffffffffffffffffffffffffffffffffffffff8262000324565b6200036f868362000324565b95508019841693508086168417925050509392505050565b6000819050919050565b6000819050919050565b6000620003bc620003b6620003b08462000387565b62000391565b62000387565b9050919050565b6000819050919050565b620003d8836200039b565b620003f0620003e782620003c3565b84845462000331565b825550505050565b600090565b62000407620003f8565b62000414818484620003cd565b505050565b5b818110156200043c5762000430600082620003fd565b6001810190506200041a565b5050565b601f8211156200048b576200045581620002ff565b620004608462000314565b8101602085101562000470578190505b620004886200047f8562000314565b83018262000419565b50505b505050565b600082821c905092915050565b6000620004b06000198460080262000490565b1980831691505092915050565b6000620004cb83836200049d565b9150826002028217905092915050565b620004e68262000261565b67ffffffffffffffff8111156200050257620005016200026c565b5b6200050e8254620002ca565b6200051b82828562000440565b600060209050601f8311600181146200055357600084156200053e578287015190505b6200054a8582620004bd565b865550620005ba565b601f1984166200056386620002ff565b60005b828110156200058d5784890151825560018201915060208501945060208101905062000566565b86831015620005ad5784890151620005a9601f8916826200049d565b8355505b6001600288020188555050505b505050505050565b6000819050919050565b620005d781620005c2565b82525050565b620005e88162000387565b82525050565b600073ffffffffffffffffffffffffffffffffffffffff82169050919050565b60006200061b82620005ee565b9050919050565b6200062d816200060e565b82525050565b600060a0820190506200064a6000830188620005cc565b620006596020830187620005cc565b620006686040830186620005cc565b620006776060830185620005dd565b62000686608083018462000622565b9695505050505050565b600082825260208201905092915050565b60005b83811015620006c1578082015181840152602081019050620006a4565b60008484015250505050565b6000601f19601f8301169050919050565b6000620006eb8262000261565b620006f7818562000690565b935062000709818560208601620006a1565b6200071481620006cd565b840191505092915050565b600060208201905081810360008301526200073b8184620006de565b905092915050565b600081519050919050565b6000819050602082019050919050565b60006200076c8251620005c2565b80915050919050565b6000620007828262000743565b826200078e846200074e565b90506200079b816200075e565b92506020821015620007de57620007d97fffffffffffffffffffffffffffffffffffffffffffffffffffffffffffffffff8360200360080262000324565b831692505b5050919050565b60805160a05160c05160e0516101005161012051610140516115b06200084060003960006105b90152600061057e01526000610a5301526000610a32015260006106e50152600061073b0152600061076401526115b06000f3fe60806040526004361061003f5760003560e01c80632d0335ab1461004457806347153f821461008157806384b0196e146100b2578063bf5d3bdb146100e3575b600080fd5b34801561005057600080fd5b5061006b60048036038101906100669190610c4f565b610120565b6040516100789190610c95565b60405180910390f35b61009b60048036038101906100969190610d39565b610169565b6040516100a9929190610e60565b60405180910390f35b3480156100be57600080fd5b506100c7610315565b6040516100da9796959493929190611006565b60405180910390f35b3480156100ef57600080fd5b5061010a60048036038101906101059190610d39565b6103bf565b604051610117919061108a565b60405180910390f35b6000600260008373ffffffffffffffffffffffffffffffffffffffff1673ffffffffffffffffffffffffffffffffffffffff168152602001908152602001600020549050919050565b600060606101788585856103bf565b6101b7576040517f08c379a00000000000000000000000000000000000000000000000000000000081526004016101ae90611117565b60405180910390fd5b600185608001356101c89190611166565b600260008760000160208101906101df9190610c4f565b73ffffffffffffffffffffffffffffffffffffffff1673ffffffffffffffffffffffffffffffffffffffff168152602001908152602001600020819055506000808660200160208101906102339190610c4f565b73ffffffffffffffffffffffffffffffffffffffff1687606001358860400135898060a0019061026391906111a9565b8b60000160208101906102769190610c4f565b60405160200161028893929190611293565b6040516020818303038152906040526040516102a491906112ee565b600060405180830381858888f193505050503d80600081146102e2576040519150601f19603f3d011682016040523d82523d6000602084013e6102e7565b606091505b5091509150603f87606001356102fd9190611334565b5a1161030557fe5b8181935093505050935093915050565b600060608060008060006060610329610575565b6103316105b0565b46306000801b600067ffffffffffffffff81111561035257610351611365565b5b6040519080825280602002602001820160405280156103805781602001602082028036833780820191505090505b507f0f00000000000000000000000000000000000000000000000000000000000000959493929190965096509650965096509650965090919293949596565b6000806104c884848080601f016020809104026020016040519081016040528093929190818152602001838380828437600081840152601f19601f820116905080830192505050505050506104ba7fdd8f4b70b0f4393e889bd39128a30628a78b61816a9eb8199759e7a349657e488860000160208101906104419190610c4f565b8960200160208101906104549190610c4f565b8a604001358b606001358c608001358d8060a0019061047391906111a9565b604051610481929190611394565b604051809103902060405160200161049f97969594939291906113ad565b604051602081830303815290604052805190602001206105eb565b61060590919063ffffffff16565b90508460800135600260008760000160208101906104e69190610c4f565b73ffffffffffffffffffffffffffffffffffffffff1673ffffffffffffffffffffffffffffffffffffffff1681526020019081526020016000205414801561056b575084600001602081019061053c9190610c4f565b73ffffffffffffffffffffffffffffffffffffffff168173ffffffffffffffffffffffffffffffffffffffff16145b9150509392505050565b60606105ab60007f000000000000000000000000000000000000000000000000000000000000000061063190919063ffffffff16565b905090565b60606105e660017f000000000000000000000000000000000000000000000000000000000000000061063190919063ffffffff16565b905090565b60006105fe6105f86106e1565b83610798565b9050919050565b60008060008061061586866107d9565b9250925092506106258282610835565b82935050505092915050565b606060ff60001b831461064e5761064783610999565b90506106db565b81805461065a9061144b565b80601f01602080910402602001604051908101604052809291908181526020018280546106869061144b565b80156106d35780601f106106a8576101008083540402835291602001916106d3565b820191906000526020600020905b8154815290600101906020018083116106b657829003601f168201915b505050505090505b92915050565b60007f000000000000000000000000000000000000000000000000000000000000000073ffffffffffffffffffffffffffffffffffffffff163073ffffffffffffffffffffffffffffffffffffffff1614801561075d57507f000000000000000000000000000000000000000000000000000000000000000046145b1561078a577f00000000000000000000000000000000000000000000000000000000000000009050610795565b610792610a0d565b90505b90565b60006040517f190100000000000000000000000000000000000000000000000000000000000081528360028201528260228201526042812091505092915050565b6000806000604184510361081e5760008060006020870151925060408701519150606087015160001a905061081088828585610aa3565b95509550955050505061082e565b60006002855160001b9250925092505b9250925092565b600060038111156108495761084861147c565b5b82600381111561085c5761085b61147c565b5b031561099557600160038111156108765761087561147c565b5b8260038111156108895761088861147c565b5b036108c0576040517ff645eedf00000000000000000000000000000000000000000000000000000000815260040160405180910390fd5b600260038111156108d4576108d361147c565b5b8260038111156108e7576108e661147c565b5b0361092c578060001c6040517ffce698f70000000000000000000000000000000000000000000000000000000081526004016109239190610c95565b60405180910390fd5b60038081111561093f5761093e61147c565b5b8260038111156109525761095161147c565b5b0361099457806040517fd78bce0c00000000000000000000000000000000000000000000000000000000815260040161098b91906114ab565b60405180910390fd5b5b5050565b606060006109a683610b97565b90506000602067ffffffffffffffff8111156109c5576109c4611365565b5b6040519080825280601f01601f1916602001820160405280156109f75781602001600182028036833780820191505090505b5090508181528360208201528092505050919050565b60007f8b73c3c69bb8fe3d512ecc4cf759cc79239f7b179b0ffacaa9a75d522b39400f7f00000000000000000000000000000000000000000000000000000000000000007f00000000000000000000000000000000000000000000000000000000000000004630604051602001610a889594939291906114c6565b60405160208183030381529060405280519060200120905090565b60008060007f7fffffffffffffffffffffffffffffff5d576e7357a4501ddfe92f46681b20a08460001c1115610ae3576000600385925092509250610b8d565b600060018888888860405160008152602001604052604051610b089493929190611535565b6020604051602081039080840390855afa158015610b2a573d6000803e3d6000fd5b505050602060405103519050600073ffffffffffffffffffffffffffffffffffffffff168173ffffffffffffffffffffffffffffffffffffffff1603610b7e57600060016000801b93509350935050610b8d565b8060008060001b935093509350505b9450945094915050565b60008060ff8360001c169050601f811115610bde576040517fb3512b0c00000000000000000000000000000000000000000000000000000000815260040160405180910390fd5b80915050919050565b600080fd5b600080fd5b600073ffffffffffffffffffffffffffffffffffffffff82169050919050565b6000610c1c82610bf1565b9050919050565b610c2c81610c11565b8114610c3757600080fd5b50565b600081359050610c4981610c23565b92915050565b600060208284031215610c6557610c64610be7565b5b6000610c7384828501610c3a565b91505092915050565b6000819050919050565b610c8f81610c7c565b82525050565b6000602082019050610caa6000830184610c86565b92915050565b600080fd5b600060c08284031215610ccb57610cca610cb0565b5b81905092915050565b600080fd5b600080fd5b600080fd5b60008083601f840112610cf957610cf8610cd4565b5b8235905067ffffffffffffffff811115610d1657610d15610cd9565b5b602083019150836001820283011115610d3257610d31610cde565b5b9250929050565b600080600060408486031215610d5257610d51610be7565b5b600084013567ffffffffffffffff811115610d7057610d6f610bec565b5b610d7c86828701610cb5565b935050602084013567ffffffffffffffff811115610d9d57610d9c610bec565b5b610da986828701610ce3565b92509250509250925092565b60008115159050919050565b610dca81610db5565b82525050565b600081519050919050565b600082825260208201905092915050565b60005b83811015610e0a578082015181840152602081019050610def565b60008484015250505050565b6000601f19601f8301169050919050565b6000610e3282610dd0565b610e3c8185610ddb565b9350610e4c818560208601610dec565b610e5581610e16565b840191505092915050565b6000604082019050610e756000830185610dc1565b8181036020830152610e878184610e27565b90509392505050565b60007fff0000000000000000000000000000000000000000000000000000000000000082169050919050565b610ec581610e90565b82525050565b600081519050919050565b600082825260208201905092915050565b6000610ef282610ecb565b610efc8185610ed6565b9350610f0c818560208601610dec565b610f1581610e16565b840191505092915050565b610f2981610c11565b82525050565b6000819050919050565b610f4281610f2f565b82525050565b600081519050919050565b600082825260208201905092915050565b6000819050602082019050919050565b610f7d81610c7c565b82525050565b6000610f8f8383610f74565b60208301905092915050565b6000602082019050919050565b6000610fb382610f48565b610fbd8185610f53565b9350610fc883610f64565b8060005b83811015610ff9578151610fe08882610f83565b9750610feb83610f9b565b925050600181019050610fcc565b5085935050505092915050565b600060e08201905061101b600083018a610ebc565b818103602083015261102d8189610ee7565b905081810360408301526110418188610ee7565b90506110506060830187610c86565b61105d6080830186610f20565b61106a60a0830185610f39565b81810360c083015261107c8184610fa8565b905098975050505050505050565b600060208201905061109f6000830184610dc1565b92915050565b7f4d696e696d616c466f727761726465723a207369676e617475726520646f657360008201527f206e6f74206d6174636820726571756573740000000000000000000000000000602082015250565b6000611101603283610ed6565b915061110c826110a5565b604082019050919050565b60006020820190508181036000830152611130816110f4565b9050919050565b7f4e487b7100000000000000000000000000000000000000000000000000000000600052601160045260246000fd5b600061117182610c7c565b915061117c83610c7c565b925082820190508082111561119457611193611137565b5b92915050565b600080fd5b600080fd5b600080fd5b600080833560016020038436030381126111c6576111c561119a565b5b80840192508235915067ffffffffffffffff8211156111e8576111e761119f565b5b602083019250600182023603831315611204576112036111a4565b5b509250929050565b600081905092915050565b82818337600083830152505050565b6000611232838561120c565b935061123f838584611217565b82840190509392505050565b60008160601b9050919050565b60006112638261124b565b9050919050565b600061127582611258565b9050919050565b61128d61128882610c11565b61126a565b82525050565b60006112a0828587611226565b91506112ac828461127c565b601482019150819050949350505050565b60006112c882610dd0565b6112d2818561120c565b93506112e2818560208601610dec565b80840191505092915050565b60006112fa82846112bd565b915081905092915050565b7f4e487b7100000000000000000000000000000000000000000000000000000000600052601260045260246000fd5b600061133f82610c7c565b915061134a83610c7c565b92508261135a57611359611305565b5b828204905092915050565b7f4e487b7100000000000000000000000000000000000000000000000000000000600052604160045260246000fd5b60006113a1828486611226565b91508190509392505050565b600060e0820190506113c2600083018a610f39565b6113cf6020830189610f20565b6113dc6040830188610f20565b6113e96060830187610c86565b6113f66080830186610c86565b61140360a0830185610c86565b61141060c0830184610f39565b98975050505050505050565b7f4e487b7100000000000000000000000000000000000000000000000000000000600052602260045260246000fd5b6000600282049050600182168061146357607f821691505b6020821081036114765761147561141c565b5b50919050565b7f4e487b7100000000000000000000000000000000000000000000000000000000600052602160045260246000fd5b60006020820190506114c06000830184610f39565b92915050565b600060a0820190506114db6000830188610f39565b6114e86020830187610f39565b6114f56040830186610f39565b6115026060830185610c86565b61150f6080830184610f20565b9695505050505050565b600060ff82169050919050565b61152f81611519565b82525050565b600060808201905061154a6000830187610f39565b6115576020830186611526565b6115646040830185610f39565b6115716060830184610f39565b9594505050505056fea26469706673582212206ae0c16489215d643fc4adbcbf88a4cfcd1387b7aaa03bd22837ed92fc52df6d64736f6c63430008140033","opcodes":"PUSH2 0x160 PUSH1 0x40 MSTORE CALLVALUE DUP1 ISZERO PUSH3 0x12 JUMPI PUSH1 0x0 DUP1 REVERT JUMPDEST POP PUSH1 0x40 MLOAD DUP1 PUSH1 0x40 ADD PUSH1 0x40 MSTORE DUP1 PUSH1 0x10 DUP2 MSTORE PUSH1 0x20 ADD PUSH32 0x4D696E696D616C466F7277617264657200000000000000000000000000000000 DUP2 MSTORE POP PUSH1 0x40 MLOAD DUP1 PUSH1 0x40 ADD PUSH1 0x40 MSTORE DUP1 PUSH1 0x5 DUP2 MSTORE PUSH1 0x20 ADD PUSH32 0x302E302E31000000000000000000000000000000000000000000000000000000 DUP2 MSTORE POP PUSH3 0x95 PUSH1 0x0 DUP4 PUSH3 0x135 PUSH1 0x20 SHL SWAP1 SWAP2 SWAP1 PUSH1 0x20 SHR JUMP JUMPDEST PUSH2 0x120 DUP2 DUP2 MSTORE POP POP PUSH3 0xB3 PUSH1 0x1 DUP3 PUSH3 0x135 PUSH1 0x20 SHL SWAP1 SWAP2 SWAP1 PUSH1 0x20 SHR JUMP JUMPDEST PUSH2 0x140 DUP2 DUP2 MSTORE POP POP DUP2 DUP1 MLOAD SWAP1 PUSH1 0x20 ADD KECCAK256 PUSH1 0xE0 DUP2 DUP2 MSTORE POP POP DUP1 DUP1 MLOAD SWAP1 PUSH1 0x20 ADD KECCAK256 PUSH2 0x100 DUP2 DUP2 MSTORE POP POP CHAINID PUSH1 0xA0 DUP2 DUP2 MSTORE POP POP PUSH3 0xF2 PUSH3 0x18D PUSH1 0x20 SHL PUSH1 0x20 SHR JUMP JUMPDEST PUSH1 0x80 DUP2 DUP2 MSTORE POP POP ADDRESS PUSH20 0xFFFFFFFFFFFFFFFFFFFFFFFFFFFFFFFFFFFFFFFF AND PUSH1 0xC0 DUP2 PUSH20 0xFFFFFFFFFFFFFFFFFFFFFFFFFFFFFFFFFFFFFFFF AND DUP2 MSTORE POP POP POP POP PUSH3 0x7E5 JUMP JUMPDEST PUSH1 0x0 PUSH1 0x20 DUP4 MLOAD LT ISZERO PUSH3 0x15B JUMPI PUSH3 0x153 DUP4 PUSH3 0x1EA PUSH1 0x20 SHL PUSH1 0x20 SHR JUMP JUMPDEST SWAP1 POP PUSH3 0x187 JUMP JUMPDEST DUP3 PUSH3 0x16D DUP4 PUSH3 0x257 PUSH1 0x20 SHL PUSH1 0x20 SHR JUMP JUMPDEST PUSH1 0x0 ADD SWAP1 DUP2 PUSH3 0x17E SWAP2 SWAP1 PUSH3 0x4DB JUMP JUMPDEST POP PUSH1 0xFF PUSH1 0x0 SHL SWAP1 POP JUMPDEST SWAP3 SWAP2 POP POP JUMP JUMPDEST PUSH1 0x0 PUSH32 0x8B73C3C69BB8FE3D512ECC4CF759CC79239F7B179B0FFACAA9A75D522B39400F PUSH1 0xE0 MLOAD PUSH2 0x100 MLOAD CHAINID ADDRESS PUSH1 0x40 MLOAD PUSH1 0x20 ADD PUSH3 0x1CF SWAP6 SWAP5 SWAP4 SWAP3 SWAP2 SWAP1 PUSH3 0x633 JUMP JUMPDEST PUSH1 0x40 MLOAD PUSH1 0x20 DUP2 DUP4 SUB SUB DUP2 MSTORE SWAP1 PUSH1 0x40 MSTORE DUP1 MLOAD SWAP1 PUSH1 0x20 ADD KECCAK256 SWAP1 POP SWAP1 JUMP JUMPDEST PUSH1 0x0 DUP1 DUP3 SWAP1 POP PUSH1 0x1F DUP2 MLOAD GT ISZERO PUSH3 0x23A JUMPI DUP3 PUSH1 0x40 MLOAD PUSH32 0x305A27A900000000000000000000000000000000000000000000000000000000 DUP2 MSTORE PUSH1 0x4 ADD PUSH3 0x231 SWAP2 SWAP1 PUSH3 0x71F JUMP JUMPDEST PUSH1 0x40 MLOAD DUP1 SWAP2 SUB SWAP1 REVERT JUMPDEST DUP1 MLOAD DUP2 PUSH3 0x248 SWAP1 PUSH3 0x775 JUMP JUMPDEST PUSH1 0x0 SHR OR PUSH1 0x0 SHL SWAP2 POP POP SWAP2 SWAP1 POP JUMP JUMPDEST PUSH1 0x0 DUP2 SWAP1 POP SWAP2 SWAP1 POP JUMP JUMPDEST PUSH1 0x0 DUP2 MLOAD SWAP1 POP SWAP2 SWAP1 POP JUMP JUMPDEST PUSH32 0x4E487B7100000000000000000000000000000000000000000000000000000000 PUSH1 0x0 MSTORE PUSH1 0x41 PUSH1 0x4 MSTORE PUSH1 0x24 PUSH1 0x0 REVERT JUMPDEST PUSH32 0x4E487B7100000000000000000000000000000000000000000000000000000000 PUSH1 0x0 MSTORE PUSH1 0x22 PUSH1 0x4 MSTORE PUSH1 0x24 PUSH1 0x0 REVERT JUMPDEST PUSH1 0x0 PUSH1 0x2 DUP3 DIV SWAP1 POP PUSH1 0x1 DUP3 AND DUP1 PUSH3 0x2E3 JUMPI PUSH1 0x7F DUP3 AND SWAP2 POP JUMPDEST PUSH1 0x20 DUP3 LT DUP2 SUB PUSH3 0x2F9 JUMPI PUSH3 0x2F8 PUSH3 0x29B JUMP JUMPDEST JUMPDEST POP SWAP2 SWAP1 POP JUMP JUMPDEST PUSH1 0x0 DUP2 SWAP1 POP DUP2 PUSH1 0x0 MSTORE PUSH1 0x20 PUSH1 0x0 KECCAK256 SWAP1 POP SWAP2 SWAP1 POP JUMP JUMPDEST PUSH1 0x0 PUSH1 0x20 PUSH1 0x1F DUP4 ADD DIV SWAP1 POP SWAP2 SWAP1 POP JUMP JUMPDEST PUSH1 0x0 DUP3 DUP3 SHL SWAP1 POP SWAP3 SWAP2 POP POP JUMP JUMPDEST PUSH1 0x0 PUSH1 0x8 DUP4 MUL PUSH3 0x363 PUSH32 0xFFFFFFFFFFFFFFFFFFFFFFFFFFFFFFFFFFFFFFFFFFFFFFFFFFFFFFFFFFFFFFFF DUP3 PUSH3 0x324 JUMP JUMPDEST PUSH3 0x36F DUP7 DUP4 PUSH3 0x324 JUMP JUMPDEST SWAP6 POP DUP1 NOT DUP5 AND SWAP4 POP DUP1 DUP7 AND DUP5 OR SWAP3 POP POP POP SWAP4 SWAP3 POP POP POP JUMP JUMPDEST PUSH1 0x0 DUP2 SWAP1 POP SWAP2 SWAP1 POP JUMP JUMPDEST PUSH1 0x0 DUP2 SWAP1 POP SWAP2 SWAP1 POP JUMP JUMPDEST PUSH1 0x0 PUSH3 0x3BC PUSH3 0x3B6 PUSH3 0x3B0 DUP5 PUSH3 0x387 JUMP JUMPDEST PUSH3 0x391 JUMP JUMPDEST PUSH3 0x387 JUMP JUMPDEST SWAP1 POP SWAP2 SWAP1 POP JUMP JUMPDEST PUSH1 0x0 DUP2 SWAP1 POP SWAP2 SWAP1 POP JUMP JUMPDEST PUSH3 0x3D8 DUP4 PUSH3 0x39B JUMP JUMPDEST PUSH3 0x3F0 PUSH3 0x3E7 DUP3 PUSH3 0x3C3 JUMP JUMPDEST DUP5 DUP5 SLOAD PUSH3 0x331 JUMP JUMPDEST DUP3 SSTORE POP POP POP POP JUMP JUMPDEST PUSH1 0x0 SWAP1 JUMP JUMPDEST PUSH3 0x407 PUSH3 0x3F8 JUMP JUMPDEST PUSH3 0x414 DUP2 DUP5 DUP5 PUSH3 0x3CD JUMP JUMPDEST POP POP POP JUMP JUMPDEST JUMPDEST DUP2 DUP2 LT ISZERO PUSH3 0x43C JUMPI PUSH3 0x430 PUSH1 0x0 DUP3 PUSH3 0x3FD JUMP JUMPDEST PUSH1 0x1 DUP2 ADD SWAP1 POP PUSH3 0x41A JUMP JUMPDEST POP POP JUMP JUMPDEST PUSH1 0x1F DUP3 GT ISZERO PUSH3 0x48B JUMPI PUSH3 0x455 DUP2 PUSH3 0x2FF JUMP JUMPDEST PUSH3 0x460 DUP5 PUSH3 0x314 JUMP JUMPDEST DUP2 ADD PUSH1 0x20 DUP6 LT ISZERO PUSH3 0x470 JUMPI DUP2 SWAP1 POP JUMPDEST PUSH3 0x488 PUSH3 0x47F DUP6 PUSH3 0x314 JUMP JUMPDEST DUP4 ADD DUP3 PUSH3 0x419 JUMP JUMPDEST POP POP JUMPDEST POP POP POP JUMP JUMPDEST PUSH1 0x0 DUP3 DUP3 SHR SWAP1 POP SWAP3 SWAP2 POP POP JUMP JUMPDEST PUSH1 0x0 PUSH3 0x4B0 PUSH1 0x0 NOT DUP5 PUSH1 0x8 MUL PUSH3 0x490 JUMP JUMPDEST NOT DUP1 DUP4 AND SWAP2 POP POP SWAP3 SWAP2 POP POP JUMP JUMPDEST PUSH1 0x0 PUSH3 0x4CB DUP4 DUP4 PUSH3 0x49D JUMP JUMPDEST SWAP2 POP DUP3 PUSH1 0x2 MUL DUP3 OR SWAP1 POP SWAP3 SWAP2 POP POP JUMP JUMPDEST PUSH3 0x4E6 DUP3 PUSH3 0x261 JUMP JUMPDEST PUSH8 0xFFFFFFFFFFFFFFFF DUP2 GT ISZERO PUSH3 0x502 JUMPI PUSH3 0x501 PUSH3 0x26C JUMP JUMPDEST JUMPDEST PUSH3 0x50E DUP3 SLOAD PUSH3 0x2CA JUMP JUMPDEST PUSH3 0x51B DUP3 DUP3 DUP6 PUSH3 0x440 JUMP JUMPDEST PUSH1 0x0 PUSH1 0x20 SWAP1 POP PUSH1 0x1F DUP4 GT PUSH1 0x1 DUP2 EQ PUSH3 0x553 JUMPI PUSH1 0x0 DUP5 ISZERO PUSH3 0x53E JUMPI DUP3 DUP8 ADD MLOAD SWAP1 POP JUMPDEST PUSH3 0x54A DUP6 DUP3 PUSH3 0x4BD JUMP JUMPDEST DUP7 SSTORE POP PUSH3 0x5BA JUMP JUMPDEST PUSH1 0x1F NOT DUP5 AND PUSH3 0x563 DUP7 PUSH3 0x2FF JUMP JUMPDEST PUSH1 0x0 JUMPDEST DUP3 DUP2 LT ISZERO PUSH3 0x58D JUMPI DUP5 DUP10 ADD MLOAD DUP3 SSTORE PUSH1 0x1 DUP3 ADD SWAP2 POP PUSH1 0x20 DUP6 ADD SWAP5 POP PUSH1 0x20 DUP2 ADD SWAP1 POP PUSH3 0x566 JUMP JUMPDEST DUP7 DUP4 LT ISZERO PUSH3 0x5AD JUMPI DUP5 DUP10 ADD MLOAD PUSH3 0x5A9 PUSH1 0x1F DUP10 AND DUP3 PUSH3 0x49D JUMP JUMPDEST DUP4 SSTORE POP JUMPDEST PUSH1 0x1 PUSH1 0x2 DUP9 MUL ADD DUP9 SSTORE POP POP POP JUMPDEST POP POP POP POP POP POP JUMP JUMPDEST PUSH1 0x0 DUP2 SWAP1 POP SWAP2 SWAP1 POP JUMP JUMPDEST PUSH3 0x5D7 DUP2 PUSH3 0x5C2 JUMP JUMPDEST DUP3 MSTORE POP POP JUMP JUMPDEST PUSH3 0x5E8 DUP2 PUSH3 0x387 JUMP JUMPDEST DUP3 MSTORE POP POP JUMP JUMPDEST PUSH1 0x0 PUSH20 0xFFFFFFFFFFFFFFFFFFFFFFFFFFFFFFFFFFFFFFFF DUP3 AND SWAP1 POP SWAP2 SWAP1 POP JUMP JUMPDEST PUSH1 0x0 PUSH3 0x61B DUP3 PUSH3 0x5EE JUMP JUMPDEST SWAP1 POP SWAP2 SWAP1 POP JUMP JUMPDEST PUSH3 0x62D DUP2 PUSH3 0x60E JUMP JUMPDEST DUP3 MSTORE POP POP JUMP JUMPDEST PUSH1 0x0 PUSH1 0xA0 DUP3 ADD SWAP1 POP PUSH3 0x64A PUSH1 0x0 DUP4 ADD DUP9 PUSH3 0x5CC JUMP JUMPDEST PUSH3 0x659 PUSH1 0x20 DUP4 ADD DUP8 PUSH3 0x5CC JUMP JUMPDEST PUSH3 0x668 PUSH1 0x40 DUP4 ADD DUP7 PUSH3 0x5CC JUMP JUMPDEST PUSH3 0x677 PUSH1 0x60 DUP4 ADD DUP6 PUSH3 0x5DD JUMP JUMPDEST PUSH3 0x686 PUSH1 0x80 DUP4 ADD DUP5 PUSH3 0x622 JUMP JUMPDEST SWAP7 SWAP6 POP POP POP POP POP POP JUMP JUMPDEST PUSH1 0x0 DUP3 DUP3 MSTORE PUSH1 0x20 DUP3 ADD SWAP1 POP SWAP3 SWAP2 POP POP JUMP JUMPDEST PUSH1 0x0 JUMPDEST DUP4 DUP2 LT ISZERO PUSH3 0x6C1 JUMPI DUP1 DUP3 ADD MLOAD DUP2 DUP5 ADD MSTORE PUSH1 0x20 DUP2 ADD SWAP1 POP PUSH3 0x6A4 JUMP JUMPDEST PUSH1 0x0 DUP5 DUP5 ADD MSTORE POP POP POP POP JUMP JUMPDEST PUSH1 0x0 PUSH1 0x1F NOT PUSH1 0x1F DUP4 ADD AND SWAP1 POP SWAP2 SWAP1 POP JUMP JUMPDEST PUSH1 0x0 PUSH3 0x6EB DUP3 PUSH3 0x261 JUMP JUMPDEST PUSH3 0x6F7 DUP2 DUP6 PUSH3 0x690 JUMP JUMPDEST SWAP4 POP PUSH3 0x709 DUP2 DUP6 PUSH1 0x20 DUP7 ADD PUSH3 0x6A1 JUMP JUMPDEST PUSH3 0x714 DUP2 PUSH3 0x6CD JUMP JUMPDEST DUP5 ADD SWAP2 POP POP SWAP3 SWAP2 POP POP JUMP JUMPDEST PUSH1 0x0 PUSH1 0x20 DUP3 ADD SWAP1 POP DUP2 DUP2 SUB PUSH1 0x0 DUP4 ADD MSTORE PUSH3 0x73B DUP2 DUP5 PUSH3 0x6DE JUMP JUMPDEST SWAP1 POP SWAP3 SWAP2 POP POP JUMP JUMPDEST PUSH1 0x0 DUP2 MLOAD SWAP1 POP SWAP2 SWAP1 POP JUMP JUMPDEST PUSH1 0x0 DUP2 SWAP1 POP PUSH1 0x20 DUP3 ADD SWAP1 POP SWAP2 SWAP1 POP JUMP JUMPDEST PUSH1 0x0 PUSH3 0x76C DUP3 MLOAD PUSH3 0x5C2 JUMP JUMPDEST DUP1 SWAP2 POP POP SWAP2 SWAP1 POP JUMP JUMPDEST PUSH1 0x0 PUSH3 0x782 DUP3 PUSH3 0x743 JUMP JUMPDEST DUP3 PUSH3 0x78E DUP5 PUSH3 0x74E JUMP JUMPDEST SWAP1 POP PUSH3 0x79B DUP2 PUSH3 0x75E JUMP JUMPDEST SWAP3 POP PUSH1 0x20 DUP3 LT ISZERO PUSH3 0x7DE JUMPI PUSH3 0x7D9 PUSH32 0xFFFFFFFFFFFFFFFFFFFFFFFFFFFFFFFFFFFFFFFFFFFFFFFFFFFFFFFFFFFFFFFF DUP4 PUSH1 0x20 SUB PUSH1 0x8 MUL PUSH3 0x324 JUMP JUMPDEST DUP4 AND SWAP3 POP JUMPDEST POP POP SWAP2 SWAP1 POP JUMP JUMPDEST PUSH1 0x80 MLOAD PUSH1 0xA0 MLOAD PUSH1 0xC0 MLOAD PUSH1 0xE0 MLOAD PUSH2 0x100 MLOAD PUSH2 0x120 MLOAD PUSH2 0x140 MLOAD PUSH2 0x15B0 PUSH3 0x840 PUSH1 0x0 CODECOPY PUSH1 0x0 PUSH2 0x5B9 ADD MSTORE PUSH1 0x0 PUSH2 0x57E ADD MSTORE PUSH1 0x0 PUSH2 0xA53 ADD MSTORE PUSH1 0x0 PUSH2 0xA32 ADD MSTORE PUSH1 0x0 PUSH2 0x6E5 ADD MSTORE PUSH1 0x0 PUSH2 0x73B ADD MSTORE PUSH1 0x0 PUSH2 0x764 ADD MSTORE PUSH2 0x15B0 PUSH1 0x0 RETURN INVALID PUSH1 0x80 PUSH1 0x40 MSTORE PUSH1 0x4 CALLDATASIZE LT PUSH2 0x3F JUMPI PUSH1 0x0 CALLDATALOAD PUSH1 0xE0 SHR DUP1 PUSH4 0x2D0335AB EQ PUSH2 0x44 JUMPI DUP1 PUSH4 0x47153F82 EQ PUSH2 0x81 JUMPI DUP1 PUSH4 0x84B0196E EQ PUSH2 0xB2 JUMPI DUP1 PUSH4 0xBF5D3BDB EQ PUSH2 0xE3 JUMPI JUMPDEST PUSH1 0x0 DUP1 REVERT JUMPDEST CALLVALUE DUP1 ISZERO PUSH2 0x50 JUMPI PUSH1 0x0 DUP1 REVERT JUMPDEST POP PUSH2 0x6B PUSH1 0x4 DUP1 CALLDATASIZE SUB DUP2 ADD SWAP1 PUSH2 0x66 SWAP2 SWAP1 PUSH2 0xC4F JUMP JUMPDEST PUSH2 0x120 JUMP JUMPDEST PUSH1 0x40 MLOAD PUSH2 0x78 SWAP2 SWAP1 PUSH2 0xC95 JUMP JUMPDEST PUSH1 0x40 MLOAD DUP1 SWAP2 SUB SWAP1 RETURN JUMPDEST PUSH2 0x9B PUSH1 0x4 DUP1 CALLDATASIZE SUB DUP2 ADD SWAP1 PUSH2 0x96 SWAP2 SWAP1 PUSH2 0xD39 JUMP JUMPDEST PUSH2 0x169 JUMP JUMPDEST PUSH1 0x40 MLOAD PUSH2 0xA9 SWAP3 SWAP2 SWAP1 PUSH2 0xE60 JUMP JUMPDEST PUSH1 0x40 MLOAD DUP1 SWAP2 SUB SWAP1 RETURN JUMPDEST CALLVALUE DUP1 ISZERO PUSH2 0xBE JUMPI PUSH1 0x0 DUP1 REVERT JUMPDEST POP PUSH2 0xC7 PUSH2 0x315 JUMP JUMPDEST PUSH1 0x40 MLOAD PUSH2 0xDA SWAP8 SWAP7 SWAP6 SWAP5 SWAP4 SWAP3 SWAP2 SWAP1 PUSH2 0x1006 JUMP JUMPDEST PUSH1 0x40 MLOAD DUP1 SWAP2 SUB SWAP1 RETURN JUMPDEST CALLVALUE DUP1 ISZERO PUSH2 0xEF JUMPI PUSH1 0x0 DUP1 REVERT JUMPDEST POP PUSH2 0x10A PUSH1 0x4 DUP1 CALLDATASIZE SUB DUP2 ADD SWAP1 PUSH2 0x105 SWAP2 SWAP1 PUSH2 0xD39 JUMP JUMPDEST PUSH2 0x3BF JUMP JUMPDEST PUSH1 0x40 MLOAD PUSH2 0x117 SWAP2 SWAP1 PUSH2 0x108A JUMP JUMPDEST PUSH1 0x40 MLOAD DUP1 SWAP2 SUB SWAP1 RETURN JUMPDEST PUSH1 0x0 PUSH1 0x2 PUSH1 0x0 DUP4 PUSH20 0xFFFFFFFFFFFFFFFFFFFFFFFFFFFFFFFFFFFFFFFF AND PUSH20 0xFFFFFFFFFFFFFFFFFFFFFFFFFFFFFFFFFFFFFFFF AND DUP2 MSTORE PUSH1 0x20 ADD SWAP1 DUP2 MSTORE PUSH1 0x20 ADD PUSH1 0x0 KECCAK256 SLOAD SWAP1 POP SWAP2 SWAP1 POP JUMP JUMPDEST PUSH1 0x0 PUSH1 0x60 PUSH2 0x178 DUP6 DUP6 DUP6 PUSH2 0x3BF JUMP JUMPDEST PUSH2 0x1B7 JUMPI PUSH1 0x40 MLOAD PUSH32 0x8C379A000000000000000000000000000000000000000000000000000000000 DUP2 MSTORE PUSH1 0x4 ADD PUSH2 0x1AE SWAP1 PUSH2 0x1117 JUMP JUMPDEST PUSH1 0x40 MLOAD DUP1 SWAP2 SUB SWAP1 REVERT JUMPDEST PUSH1 0x1 DUP6 PUSH1 0x80 ADD CALLDATALOAD PUSH2 0x1C8 SWAP2 SWAP1 PUSH2 0x1166 JUMP JUMPDEST PUSH1 0x2 PUSH1 0x0 DUP8 PUSH1 0x0 ADD PUSH1 0x20 DUP2 ADD SWAP1 PUSH2 0x1DF SWAP2 SWAP1 PUSH2 0xC4F JUMP JUMPDEST PUSH20 0xFFFFFFFFFFFFFFFFFFFFFFFFFFFFFFFFFFFFFFFF AND PUSH20 0xFFFFFFFFFFFFFFFFFFFFFFFFFFFFFFFFFFFFFFFF AND DUP2 MSTORE PUSH1 0x20 ADD SWAP1 DUP2 MSTORE PUSH1 0x20 ADD PUSH1 0x0 KECCAK256 DUP2 SWAP1 SSTORE POP PUSH1 0x0 DUP1 DUP7 PUSH1 0x20 ADD PUSH1 0x20 DUP2 ADD SWAP1 PUSH2 0x233 SWAP2 SWAP1 PUSH2 0xC4F JUMP JUMPDEST PUSH20 0xFFFFFFFFFFFFFFFFFFFFFFFFFFFFFFFFFFFFFFFF AND DUP8 PUSH1 0x60 ADD CALLDATALOAD DUP9 PUSH1 0x40 ADD CALLDATALOAD DUP10 DUP1 PUSH1 0xA0 ADD SWAP1 PUSH2 0x263 SWAP2 SWAP1 PUSH2 0x11A9 JUMP JUMPDEST DUP12 PUSH1 0x0 ADD PUSH1 0x20 DUP2 ADD SWAP1 PUSH2 0x276 SWAP2 SWAP1 PUSH2 0xC4F JUMP JUMPDEST PUSH1 0x40 MLOAD PUSH1 0x20 ADD PUSH2 0x288 SWAP4 SWAP3 SWAP2 SWAP1 PUSH2 0x1293 JUMP JUMPDEST PUSH1 0x40 MLOAD PUSH1 0x20 DUP2 DUP4 SUB SUB DUP2 MSTORE SWAP1 PUSH1 0x40 MSTORE PUSH1 0x40 MLOAD PUSH2 0x2A4 SWAP2 SWAP1 PUSH2 0x12EE JUMP JUMPDEST PUSH1 0x0 PUSH1 0x40 MLOAD DUP1 DUP4 SUB DUP2 DUP6 DUP9 DUP9 CALL SWAP4 POP POP POP POP RETURNDATASIZE DUP1 PUSH1 0x0 DUP2 EQ PUSH2 0x2E2 JUMPI PUSH1 0x40 MLOAD SWAP2 POP PUSH1 0x1F NOT PUSH1 0x3F RETURNDATASIZE ADD AND DUP3 ADD PUSH1 0x40 MSTORE RETURNDATASIZE DUP3 MSTORE RETURNDATASIZE PUSH1 0x0 PUSH1 0x20 DUP5 ADD RETURNDATACOPY PUSH2 0x2E7 JUMP JUMPDEST PUSH1 0x60 SWAP2 POP JUMPDEST POP SWAP2 POP SWAP2 POP PUSH1 0x3F DUP8 PUSH1 0x60 ADD CALLDATALOAD PUSH2 0x2FD SWAP2 SWAP1 PUSH2 0x1334 JUMP JUMPDEST GAS GT PUSH2 0x305 JUMPI INVALID JUMPDEST DUP2 DUP2 SWAP4 POP SWAP4 POP POP POP SWAP4 POP SWAP4 SWAP2 POP POP JUMP JUMPDEST PUSH1 0x0 PUSH1 0x60 DUP1 PUSH1 0x0 DUP1 PUSH1 0x0 PUSH1 0x60 PUSH2 0x329 PUSH2 0x575 JUMP JUMPDEST PUSH2 0x331 PUSH2 0x5B0 JUMP JUMPDEST CHAINID ADDRESS PUSH1 0x0 DUP1 SHL PUSH1 0x0 PUSH8 0xFFFFFFFFFFFFFFFF DUP2 GT ISZERO PUSH2 0x352 JUMPI PUSH2 0x351 PUSH2 0x1365 JUMP JUMPDEST JUMPDEST PUSH1 0x40 MLOAD SWAP1 DUP1 DUP3 MSTORE DUP1 PUSH1 0x20 MUL PUSH1 0x20 ADD DUP3 ADD PUSH1 0x40 MSTORE DUP1 ISZERO PUSH2 0x380 JUMPI DUP2 PUSH1 0x20 ADD PUSH1 0x20 DUP3 MUL DUP1 CALLDATASIZE DUP4 CALLDATACOPY DUP1 DUP3 ADD SWAP2 POP POP SWAP1 POP JUMPDEST POP PUSH32 0xF00000000000000000000000000000000000000000000000000000000000000 SWAP6 SWAP5 SWAP4 SWAP3 SWAP2 SWAP1 SWAP7 POP SWAP7 POP SWAP7 POP SWAP7 POP SWAP7 POP SWAP7 POP SWAP7 POP SWAP1 SWAP2 SWAP3 SWAP4 SWAP5 SWAP6 SWAP7 JUMP JUMPDEST PUSH1 0x0 DUP1 PUSH2 0x4C8 DUP5 DUP5 DUP1 DUP1 PUSH1 0x1F ADD PUSH1 0x20 DUP1 SWAP2 DIV MUL PUSH1 0x20 ADD PUSH1 0x40 MLOAD SWAP1 DUP2 ADD PUSH1 0x40 MSTORE DUP1 SWAP4 SWAP3 SWAP2 SWAP1 DUP2 DUP2 MSTORE PUSH1 0x20 ADD DUP4 DUP4 DUP1 DUP3 DUP5 CALLDATACOPY PUSH1 0x0 DUP2 DUP5 ADD MSTORE PUSH1 0x1F NOT PUSH1 0x1F DUP3 ADD AND SWAP1 POP DUP1 DUP4 ADD SWAP3 POP POP POP POP POP POP POP PUSH2 0x4BA PUSH32 0xDD8F4B70B0F4393E889BD39128A30628A78B61816A9EB8199759E7A349657E48 DUP9 PUSH1 0x0 ADD PUSH1 0x20 DUP2 ADD SWAP1 PUSH2 0x441 SWAP2 SWAP1 PUSH2 0xC4F JUMP JUMPDEST DUP10 PUSH1 0x20 ADD PUSH1 0x20 DUP2 ADD SWAP1 PUSH2 0x454 SWAP2 SWAP1 PUSH2 0xC4F JUMP JUMPDEST DUP11 PUSH1 0x40 ADD CALLDATALOAD DUP12 PUSH1 0x60 ADD CALLDATALOAD DUP13 PUSH1 0x80 ADD CALLDATALOAD DUP14 DUP1 PUSH1 0xA0 ADD SWAP1 PUSH2 0x473 SWAP2 SWAP1 PUSH2 0x11A9 JUMP JUMPDEST PUSH1 0x40 MLOAD PUSH2 0x481 SWAP3 SWAP2 SWAP1 PUSH2 0x1394 JUMP JUMPDEST PUSH1 0x40 MLOAD DUP1 SWAP2 SUB SWAP1 KECCAK256 PUSH1 0x40 MLOAD PUSH1 0x20 ADD PUSH2 0x49F SWAP8 SWAP7 SWAP6 SWAP5 SWAP4 SWAP3 SWAP2 SWAP1 PUSH2 0x13AD JUMP JUMPDEST PUSH1 0x40 MLOAD PUSH1 0x20 DUP2 DUP4 SUB SUB DUP2 MSTORE SWAP1 PUSH1 0x40 MSTORE DUP1 MLOAD SWAP1 PUSH1 0x20 ADD KECCAK256 PUSH2 0x5EB JUMP JUMPDEST PUSH2 0x605 SWAP1 SWAP2 SWAP1 PUSH4 0xFFFFFFFF AND JUMP JUMPDEST SWAP1 POP DUP5 PUSH1 0x80 ADD CALLDATALOAD PUSH1 0x2 PUSH1 0x0 DUP8 PUSH1 0x0 ADD PUSH1 0x20 DUP2 ADD SWAP1 PUSH2 0x4E6 SWAP2 SWAP1 PUSH2 0xC4F JUMP JUMPDEST PUSH20 0xFFFFFFFFFFFFFFFFFFFFFFFFFFFFFFFFFFFFFFFF AND PUSH20 0xFFFFFFFFFFFFFFFFFFFFFFFFFFFFFFFFFFFFFFFF AND DUP2 MSTORE PUSH1 0x20 ADD SWAP1 DUP2 MSTORE PUSH1 0x20 ADD PUSH1 0x0 KECCAK256 SLOAD EQ DUP1 ISZERO PUSH2 0x56B JUMPI POP DUP5 PUSH1 0x0 ADD PUSH1 0x20 DUP2 ADD SWAP1 PUSH2 0x53C SWAP2 SWAP1 PUSH2 0xC4F JUMP JUMPDEST PUSH20 0xFFFFFFFFFFFFFFFFFFFFFFFFFFFFFFFFFFFFFFFF AND DUP2 PUSH20 0xFFFFFFFFFFFFFFFFFFFFFFFFFFFFFFFFFFFFFFFF AND EQ JUMPDEST SWAP2 POP POP SWAP4 SWAP3 POP POP POP JUMP JUMPDEST PUSH1 0x60 PUSH2 0x5AB PUSH1 0x0 PUSH32 0x0 PUSH2 0x631 SWAP1 SWAP2 SWAP1 PUSH4 0xFFFFFFFF AND JUMP JUMPDEST SWAP1 POP SWAP1 JUMP JUMPDEST PUSH1 0x60 PUSH2 0x5E6 PUSH1 0x1 PUSH32 0x0 PUSH2 0x631 SWAP1 SWAP2 SWAP1 PUSH4 0xFFFFFFFF AND JUMP JUMPDEST SWAP1 POP SWAP1 JUMP JUMPDEST PUSH1 0x0 PUSH2 0x5FE PUSH2 0x5F8 PUSH2 0x6E1 JUMP JUMPDEST DUP4 PUSH2 0x798 JUMP JUMPDEST SWAP1 POP SWAP2 SWAP1 POP JUMP JUMPDEST PUSH1 0x0 DUP1 PUSH1 0x0 DUP1 PUSH2 0x615 DUP7 DUP7 PUSH2 0x7D9 JUMP JUMPDEST SWAP3 POP SWAP3 POP SWAP3 POP PUSH2 0x625 DUP3 DUP3 PUSH2 0x835 JUMP JUMPDEST DUP3 SWAP4 POP POP POP POP SWAP3 SWAP2 POP POP JUMP JUMPDEST PUSH1 0x60 PUSH1 0xFF PUSH1 0x0 SHL DUP4 EQ PUSH2 0x64E JUMPI PUSH2 0x647 DUP4 PUSH2 0x999 JUMP JUMPDEST SWAP1 POP PUSH2 0x6DB JUMP JUMPDEST DUP2 DUP1 SLOAD PUSH2 0x65A SWAP1 PUSH2 0x144B JUMP JUMPDEST DUP1 PUSH1 0x1F ADD PUSH1 0x20 DUP1 SWAP2 DIV MUL PUSH1 0x20 ADD PUSH1 0x40 MLOAD SWAP1 DUP2 ADD PUSH1 0x40 MSTORE DUP1 SWAP3 SWAP2 SWAP1 DUP2 DUP2 MSTORE PUSH1 0x20 ADD DUP3 DUP1 SLOAD PUSH2 0x686 SWAP1 PUSH2 0x144B JUMP JUMPDEST DUP1 ISZERO PUSH2 0x6D3 JUMPI DUP1 PUSH1 0x1F LT PUSH2 0x6A8 JUMPI PUSH2 0x100 DUP1 DUP4 SLOAD DIV MUL DUP4 MSTORE SWAP2 PUSH1 0x20 ADD SWAP2 PUSH2 0x6D3 JUMP JUMPDEST DUP3 ADD SWAP2 SWAP1 PUSH1 0x0 MSTORE PUSH1 0x20 PUSH1 0x0 KECCAK256 SWAP1 JUMPDEST DUP2 SLOAD DUP2 MSTORE SWAP1 PUSH1 0x1 ADD SWAP1 PUSH1 0x20 ADD DUP1 DUP4 GT PUSH2 0x6B6 JUMPI DUP3 SWAP1 SUB PUSH1 0x1F AND DUP3 ADD SWAP2 JUMPDEST POP POP POP POP POP SWAP1 POP JUMPDEST SWAP3 SWAP2 POP POP JUMP JUMPDEST PUSH1 0x0 PUSH32 0x0 PUSH20 0xFFFFFFFFFFFFFFFFFFFFFFFFFFFFFFFFFFFFFFFF AND ADDRESS PUSH20 0xFFFFFFFFFFFFFFFFFFFFFFFFFFFFFFFFFFFFFFFF AND EQ DUP1 ISZERO PUSH2 0x75D JUMPI POP PUSH32 0x0 CHAINID EQ JUMPDEST ISZERO PUSH2 0x78A JUMPI PUSH32 0x0 SWAP1 POP PUSH2 0x795 JUMP JUMPDEST PUSH2 0x792 PUSH2 0xA0D JUMP JUMPDEST SWAP1 POP JUMPDEST SWAP1 JUMP JUMPDEST PUSH1 0x0 PUSH1 0x40 MLOAD PUSH32 0x1901000000000000000000000000000000000000000000000000000000000000 DUP2 MSTORE DUP4 PUSH1 0x2 DUP3 ADD MSTORE DUP3 PUSH1 0x22 DUP3 ADD MSTORE PUSH1 0x42 DUP2 KECCAK256 SWAP2 POP POP SWAP3 SWAP2 POP POP JUMP JUMPDEST PUSH1 0x0 DUP1 PUSH1 0x0 PUSH1 0x41 DUP5 MLOAD SUB PUSH2 0x81E JUMPI PUSH1 0x0 DUP1 PUSH1 0x0 PUSH1 0x20 DUP8 ADD MLOAD SWAP3 POP PUSH1 0x40 DUP8 ADD MLOAD SWAP2 POP PUSH1 0x60 DUP8 ADD MLOAD PUSH1 0x0 BYTE SWAP1 POP PUSH2 0x810 DUP9 DUP3 DUP6 DUP6 PUSH2 0xAA3 JUMP JUMPDEST SWAP6 POP SWAP6 POP SWAP6 POP POP POP POP PUSH2 0x82E JUMP JUMPDEST PUSH1 0x0 PUSH1 0x2 DUP6 MLOAD PUSH1 0x0 SHL SWAP3 POP SWAP3 POP SWAP3 POP JUMPDEST SWAP3 POP SWAP3 POP SWAP3 JUMP JUMPDEST PUSH1 0x0 PUSH1 0x3 DUP2 GT ISZERO PUSH2 0x849 JUMPI PUSH2 0x848 PUSH2 0x147C JUMP JUMPDEST JUMPDEST DUP3 PUSH1 0x3 DUP2 GT ISZERO PUSH2 0x85C JUMPI PUSH2 0x85B PUSH2 0x147C JUMP JUMPDEST JUMPDEST SUB ISZERO PUSH2 0x995 JUMPI PUSH1 0x1 PUSH1 0x3 DUP2 GT ISZERO PUSH2 0x876 JUMPI PUSH2 0x875 PUSH2 0x147C JUMP JUMPDEST JUMPDEST DUP3 PUSH1 0x3 DUP2 GT ISZERO PUSH2 0x889 JUMPI PUSH2 0x888 PUSH2 0x147C JUMP JUMPDEST JUMPDEST SUB PUSH2 0x8C0 JUMPI PUSH1 0x40 MLOAD PUSH32 0xF645EEDF00000000000000000000000000000000000000000000000000000000 DUP2 MSTORE PUSH1 0x4 ADD PUSH1 0x40 MLOAD DUP1 SWAP2 SUB SWAP1 REVERT JUMPDEST PUSH1 0x2 PUSH1 0x3 DUP2 GT ISZERO PUSH2 0x8D4 JUMPI PUSH2 0x8D3 PUSH2 0x147C JUMP JUMPDEST JUMPDEST DUP3 PUSH1 0x3 DUP2 GT ISZERO PUSH2 0x8E7 JUMPI PUSH2 0x8E6 PUSH2 0x147C JUMP JUMPDEST JUMPDEST SUB PUSH2 0x92C JUMPI DUP1 PUSH1 0x0 SHR PUSH1 0x40 MLOAD PUSH32 0xFCE698F700000000000000000000000000000000000000000000000000000000 DUP2 MSTORE PUSH1 0x4 ADD PUSH2 0x923 SWAP2 SWAP1 PUSH2 0xC95 JUMP JUMPDEST PUSH1 0x40 MLOAD DUP1 SWAP2 SUB SWAP1 REVERT JUMPDEST PUSH1 0x3 DUP1 DUP2 GT ISZERO PUSH2 0x93F JUMPI PUSH2 0x93E PUSH2 0x147C JUMP JUMPDEST JUMPDEST DUP3 PUSH1 0x3 DUP2 GT ISZERO PUSH2 0x952 JUMPI PUSH2 0x951 PUSH2 0x147C JUMP JUMPDEST JUMPDEST SUB PUSH2 0x994 JUMPI DUP1 PUSH1 0x40 MLOAD PUSH32 0xD78BCE0C00000000000000000000000000000000000000000000000000000000 DUP2 MSTORE PUSH1 0x4 ADD PUSH2 0x98B SWAP2 SWAP1 PUSH2 0x14AB JUMP JUMPDEST PUSH1 0x40 MLOAD DUP1 SWAP2 SUB SWAP1 REVERT JUMPDEST JUMPDEST POP POP JUMP JUMPDEST PUSH1 0x60 PUSH1 0x0 PUSH2 0x9A6 DUP4 PUSH2 0xB97 JUMP JUMPDEST SWAP1 POP PUSH1 0x0 PUSH1 0x20 PUSH8 0xFFFFFFFFFFFFFFFF DUP2 GT ISZERO PUSH2 0x9C5 JUMPI PUSH2 0x9C4 PUSH2 0x1365 JUMP JUMPDEST JUMPDEST PUSH1 0x40 MLOAD SWAP1 DUP1 DUP3 MSTORE DUP1 PUSH1 0x1F ADD PUSH1 0x1F NOT AND PUSH1 0x20 ADD DUP3 ADD PUSH1 0x40 MSTORE DUP1 ISZERO PUSH2 0x9F7 JUMPI DUP2 PUSH1 0x20 ADD PUSH1 0x1 DUP3 MUL DUP1 CALLDATASIZE DUP4 CALLDATACOPY DUP1 DUP3 ADD SWAP2 POP POP SWAP1 POP JUMPDEST POP SWAP1 POP DUP2 DUP2 MSTORE DUP4 PUSH1 0x20 DUP3 ADD MSTORE DUP1 SWAP3 POP POP POP SWAP2 SWAP1 POP JUMP JUMPDEST PUSH1 0x0 PUSH32 0x8B73C3C69BB8FE3D512ECC4CF759CC79239F7B179B0FFACAA9A75D522B39400F PUSH32 0x0 PUSH32 0x0 CHAINID ADDRESS PUSH1 0x40 MLOAD PUSH1 0x20 ADD PUSH2 0xA88 SWAP6 SWAP5 SWAP4 SWAP3 SWAP2 SWAP1 PUSH2 0x14C6 JUMP JUMPDEST PUSH1 0x40 MLOAD PUSH1 0x20 DUP2 DUP4 SUB SUB DUP2 MSTORE SWAP1 PUSH1 0x40 MSTORE DUP1 MLOAD SWAP1 PUSH1 0x20 ADD KECCAK256 SWAP1 POP SWAP1 JUMP JUMPDEST PUSH1 0x0 DUP1 PUSH1 0x0 PUSH32 0x7FFFFFFFFFFFFFFFFFFFFFFFFFFFFFFF5D576E7357A4501DDFE92F46681B20A0 DUP5 PUSH1 0x0 SHR GT ISZERO PUSH2 0xAE3 JUMPI PUSH1 0x0 PUSH1 0x3 DUP6 SWAP3 POP SWAP3 POP SWAP3 POP PUSH2 0xB8D JUMP JUMPDEST PUSH1 0x0 PUSH1 0x1 DUP9 DUP9 DUP9 DUP9 PUSH1 0x40 MLOAD PUSH1 0x0 DUP2 MSTORE PUSH1 0x20 ADD PUSH1 0x40 MSTORE PUSH1 0x40 MLOAD PUSH2 0xB08 SWAP5 SWAP4 SWAP3 SWAP2 SWAP1 PUSH2 0x1535 JUMP JUMPDEST PUSH1 0x20 PUSH1 0x40 MLOAD PUSH1 0x20 DUP2 SUB SWAP1 DUP1 DUP5 SUB SWAP1 DUP6 GAS STATICCALL ISZERO DUP1 ISZERO PUSH2 0xB2A JUMPI RETURNDATASIZE PUSH1 0x0 DUP1 RETURNDATACOPY RETURNDATASIZE PUSH1 0x0 REVERT JUMPDEST POP POP POP PUSH1 0x20 PUSH1 0x40 MLOAD SUB MLOAD SWAP1 POP PUSH1 0x0 PUSH20 0xFFFFFFFFFFFFFFFFFFFFFFFFFFFFFFFFFFFFFFFF AND DUP2 PUSH20 0xFFFFFFFFFFFFFFFFFFFFFFFFFFFFFFFFFFFFFFFF AND SUB PUSH2 0xB7E JUMPI PUSH1 0x0 PUSH1 0x1 PUSH1 0x0 DUP1 SHL SWAP4 POP SWAP4 POP SWAP4 POP POP PUSH2 0xB8D JUMP JUMPDEST DUP1 PUSH1 0x0 DUP1 PUSH1 0x0 SHL SWAP4 POP SWAP4 POP SWAP4 POP POP JUMPDEST SWAP5 POP SWAP5 POP SWAP5 SWAP2 POP POP JUMP JUMPDEST PUSH1 0x0 DUP1 PUSH1 0xFF DUP4 PUSH1 0x0 SHR AND SWAP1 POP PUSH1 0x1F DUP2 GT ISZERO PUSH2 0xBDE JUMPI PUSH1 0x40 MLOAD PUSH32 0xB3512B0C00000000000000000000000000000000000000000000000000000000 DUP2 MSTORE PUSH1 0x4 ADD PUSH1 0x40 MLOAD DUP1 SWAP2 SUB SWAP1 REVERT JUMPDEST DUP1 SWAP2 POP POP SWAP2 SWAP1 POP JUMP JUMPDEST PUSH1 0x0 DUP1 REVERT JUMPDEST PUSH1 0x0 DUP1 REVERT JUMPDEST PUSH1 0x0 PUSH20 0xFFFFFFFFFFFFFFFFFFFFFFFFFFFFFFFFFFFFFFFF DUP3 AND SWAP1 POP SWAP2 SWAP1 POP JUMP JUMPDEST PUSH1 0x0 PUSH2 0xC1C DUP3 PUSH2 0xBF1 JUMP JUMPDEST SWAP1 POP SWAP2 SWAP1 POP JUMP JUMPDEST PUSH2 0xC2C DUP2 PUSH2 0xC11 JUMP JUMPDEST DUP2 EQ PUSH2 0xC37 JUMPI PUSH1 0x0 DUP1 REVERT JUMPDEST POP JUMP JUMPDEST PUSH1 0x0 DUP2 CALLDATALOAD SWAP1 POP PUSH2 0xC49 DUP2 PUSH2 0xC23 JUMP JUMPDEST SWAP3 SWAP2 POP POP JUMP JUMPDEST PUSH1 0x0 PUSH1 0x20 DUP3 DUP5 SUB SLT ISZERO PUSH2 0xC65 JUMPI PUSH2 0xC64 PUSH2 0xBE7 JUMP JUMPDEST JUMPDEST PUSH1 0x0 PUSH2 0xC73 DUP5 DUP3 DUP6 ADD PUSH2 0xC3A JUMP JUMPDEST SWAP2 POP POP SWAP3 SWAP2 POP POP JUMP JUMPDEST PUSH1 0x0 DUP2 SWAP1 POP SWAP2 SWAP1 POP JUMP JUMPDEST PUSH2 0xC8F DUP2 PUSH2 0xC7C JUMP JUMPDEST DUP3 MSTORE POP POP JUMP JUMPDEST PUSH1 0x0 PUSH1 0x20 DUP3 ADD SWAP1 POP PUSH2 0xCAA PUSH1 0x0 DUP4 ADD DUP5 PUSH2 0xC86 JUMP JUMPDEST SWAP3 SWAP2 POP POP JUMP JUMPDEST PUSH1 0x0 DUP1 REVERT JUMPDEST PUSH1 0x0 PUSH1 0xC0 DUP3 DUP5 SUB SLT ISZERO PUSH2 0xCCB JUMPI PUSH2 0xCCA PUSH2 0xCB0 JUMP JUMPDEST JUMPDEST DUP2 SWAP1 POP SWAP3 SWAP2 POP POP JUMP JUMPDEST PUSH1 0x0 DUP1 REVERT JUMPDEST PUSH1 0x0 DUP1 REVERT JUMPDEST PUSH1 0x0 DUP1 REVERT JUMPDEST PUSH1 0x0 DUP1 DUP4 PUSH1 0x1F DUP5 ADD SLT PUSH2 0xCF9 JUMPI PUSH2 0xCF8 PUSH2 0xCD4 JUMP JUMPDEST JUMPDEST DUP3 CALLDATALOAD SWAP1 POP PUSH8 0xFFFFFFFFFFFFFFFF DUP2 GT ISZERO PUSH2 0xD16 JUMPI PUSH2 0xD15 PUSH2 0xCD9 JUMP JUMPDEST JUMPDEST PUSH1 0x20 DUP4 ADD SWAP2 POP DUP4 PUSH1 0x1 DUP3 MUL DUP4 ADD GT ISZERO PUSH2 0xD32 JUMPI PUSH2 0xD31 PUSH2 0xCDE JUMP JUMPDEST JUMPDEST SWAP3 POP SWAP3 SWAP1 POP JUMP JUMPDEST PUSH1 0x0 DUP1 PUSH1 0x0 PUSH1 0x40 DUP5 DUP7 SUB SLT ISZERO PUSH2 0xD52 JUMPI PUSH2 0xD51 PUSH2 0xBE7 JUMP JUMPDEST JUMPDEST PUSH1 0x0 DUP5 ADD CALLDATALOAD PUSH8 0xFFFFFFFFFFFFFFFF DUP2 GT ISZERO PUSH2 0xD70 JUMPI PUSH2 0xD6F PUSH2 0xBEC JUMP JUMPDEST JUMPDEST PUSH2 0xD7C DUP7 DUP3 DUP8 ADD PUSH2 0xCB5 JUMP JUMPDEST SWAP4 POP POP PUSH1 0x20 DUP5 ADD CALLDATALOAD PUSH8 0xFFFFFFFFFFFFFFFF DUP2 GT ISZERO PUSH2 0xD9D JUMPI PUSH2 0xD9C PUSH2 0xBEC JUMP JUMPDEST JUMPDEST PUSH2 0xDA9 DUP7 DUP3 DUP8 ADD PUSH2 0xCE3 JUMP JUMPDEST SWAP3 POP SWAP3 POP POP SWAP3 POP SWAP3 POP SWAP3 JUMP JUMPDEST PUSH1 0x0 DUP2 ISZERO ISZERO SWAP1 POP SWAP2 SWAP1 POP JUMP JUMPDEST PUSH2 0xDCA DUP2 PUSH2 0xDB5 JUMP JUMPDEST DUP3 MSTORE POP POP JUMP JUMPDEST PUSH1 0x0 DUP2 MLOAD SWAP1 POP SWAP2 SWAP1 POP JUMP JUMPDEST PUSH1 0x0 DUP3 DUP3 MSTORE PUSH1 0x20 DUP3 ADD SWAP1 POP SWAP3 SWAP2 POP POP JUMP JUMPDEST PUSH1 0x0 JUMPDEST DUP4 DUP2 LT ISZERO PUSH2 0xE0A JUMPI DUP1 DUP3 ADD MLOAD DUP2 DUP5 ADD MSTORE PUSH1 0x20 DUP2 ADD SWAP1 POP PUSH2 0xDEF JUMP JUMPDEST PUSH1 0x0 DUP5 DUP5 ADD MSTORE POP POP POP POP JUMP JUMPDEST PUSH1 0x0 PUSH1 0x1F NOT PUSH1 0x1F DUP4 ADD AND SWAP1 POP SWAP2 SWAP1 POP JUMP JUMPDEST PUSH1 0x0 PUSH2 0xE32 DUP3 PUSH2 0xDD0 JUMP JUMPDEST PUSH2 0xE3C DUP2 DUP6 PUSH2 0xDDB JUMP JUMPDEST SWAP4 POP PUSH2 0xE4C DUP2 DUP6 PUSH1 0x20 DUP7 ADD PUSH2 0xDEC JUMP JUMPDEST PUSH2 0xE55 DUP2 PUSH2 0xE16 JUMP JUMPDEST DUP5 ADD SWAP2 POP POP SWAP3 SWAP2 POP POP JUMP JUMPDEST PUSH1 0x0 PUSH1 0x40 DUP3 ADD SWAP1 POP PUSH2 0xE75 PUSH1 0x0 DUP4 ADD DUP6 PUSH2 0xDC1 JUMP JUMPDEST DUP2 DUP2 SUB PUSH1 0x20 DUP4 ADD MSTORE PUSH2 0xE87 DUP2 DUP5 PUSH2 0xE27 JUMP JUMPDEST SWAP1 POP SWAP4 SWAP3 POP POP POP JUMP JUMPDEST PUSH1 0x0 PUSH32 0xFF00000000000000000000000000000000000000000000000000000000000000 DUP3 AND SWAP1 POP SWAP2 SWAP1 POP JUMP JUMPDEST PUSH2 0xEC5 DUP2 PUSH2 0xE90 JUMP JUMPDEST DUP3 MSTORE POP POP JUMP JUMPDEST PUSH1 0x0 DUP2 MLOAD SWAP1 POP SWAP2 SWAP1 POP JUMP JUMPDEST PUSH1 0x0 DUP3 DUP3 MSTORE PUSH1 0x20 DUP3 ADD SWAP1 POP SWAP3 SWAP2 POP POP JUMP JUMPDEST PUSH1 0x0 PUSH2 0xEF2 DUP3 PUSH2 0xECB JUMP JUMPDEST PUSH2 0xEFC DUP2 DUP6 PUSH2 0xED6 JUMP JUMPDEST SWAP4 POP PUSH2 0xF0C DUP2 DUP6 PUSH1 0x20 DUP7 ADD PUSH2 0xDEC JUMP JUMPDEST PUSH2 0xF15 DUP2 PUSH2 0xE16 JUMP JUMPDEST DUP5 ADD SWAP2 POP POP SWAP3 SWAP2 POP POP JUMP JUMPDEST PUSH2 0xF29 DUP2 PUSH2 0xC11 JUMP JUMPDEST DUP3 MSTORE POP POP JUMP JUMPDEST PUSH1 0x0 DUP2 SWAP1 POP SWAP2 SWAP1 POP JUMP JUMPDEST PUSH2 0xF42 DUP2 PUSH2 0xF2F JUMP JUMPDEST DUP3 MSTORE POP POP JUMP JUMPDEST PUSH1 0x0 DUP2 MLOAD SWAP1 POP SWAP2 SWAP1 POP JUMP JUMPDEST PUSH1 0x0 DUP3 DUP3 MSTORE PUSH1 0x20 DUP3 ADD SWAP1 POP SWAP3 SWAP2 POP POP JUMP JUMPDEST PUSH1 0x0 DUP2 SWAP1 POP PUSH1 0x20 DUP3 ADD SWAP1 POP SWAP2 SWAP1 POP JUMP JUMPDEST PUSH2 0xF7D DUP2 PUSH2 0xC7C JUMP JUMPDEST DUP3 MSTORE POP POP JUMP JUMPDEST PUSH1 0x0 PUSH2 0xF8F DUP4 DUP4 PUSH2 0xF74 JUMP JUMPDEST PUSH1 0x20 DUP4 ADD SWAP1 POP SWAP3 SWAP2 POP POP JUMP JUMPDEST PUSH1 0x0 PUSH1 0x20 DUP3 ADD SWAP1 POP SWAP2 SWAP1 POP JUMP JUMPDEST PUSH1 0x0 PUSH2 0xFB3 DUP3 PUSH2 0xF48 JUMP JUMPDEST PUSH2 0xFBD DUP2 DUP6 PUSH2 0xF53 JUMP JUMPDEST SWAP4 POP PUSH2 0xFC8 DUP4 PUSH2 0xF64 JUMP JUMPDEST DUP1 PUSH1 0x0 JUMPDEST DUP4 DUP2 LT ISZERO PUSH2 0xFF9 JUMPI DUP2 MLOAD PUSH2 0xFE0 DUP9 DUP3 PUSH2 0xF83 JUMP JUMPDEST SWAP8 POP PUSH2 0xFEB DUP4 PUSH2 0xF9B JUMP JUMPDEST SWAP3 POP POP PUSH1 0x1 DUP2 ADD SWAP1 POP PUSH2 0xFCC JUMP JUMPDEST POP DUP6 SWAP4 POP POP POP POP SWAP3 SWAP2 POP POP JUMP JUMPDEST PUSH1 0x0 PUSH1 0xE0 DUP3 ADD SWAP1 POP PUSH2 0x101B PUSH1 0x0 DUP4 ADD DUP11 PUSH2 0xEBC JUMP JUMPDEST DUP2 DUP2 SUB PUSH1 0x20 DUP4 ADD MSTORE PUSH2 0x102D DUP2 DUP10 PUSH2 0xEE7 JUMP JUMPDEST SWAP1 POP DUP2 DUP2 SUB PUSH1 0x40 DUP4 ADD MSTORE PUSH2 0x1041 DUP2 DUP9 PUSH2 0xEE7 JUMP JUMPDEST SWAP1 POP PUSH2 0x1050 PUSH1 0x60 DUP4 ADD DUP8 PUSH2 0xC86 JUMP JUMPDEST PUSH2 0x105D PUSH1 0x80 DUP4 ADD DUP7 PUSH2 0xF20 JUMP JUMPDEST PUSH2 0x106A PUSH1 0xA0 DUP4 ADD DUP6 PUSH2 0xF39 JUMP JUMPDEST DUP2 DUP2 SUB PUSH1 0xC0 DUP4 ADD MSTORE PUSH2 0x107C DUP2 DUP5 PUSH2 0xFA8 JUMP JUMPDEST SWAP1 POP SWAP9 SWAP8 POP POP POP POP POP POP POP POP JUMP JUMPDEST PUSH1 0x0 PUSH1 0x20 DUP3 ADD SWAP1 POP PUSH2 0x109F PUSH1 0x0 DUP4 ADD DUP5 PUSH2 0xDC1 JUMP JUMPDEST SWAP3 SWAP2 POP POP JUMP JUMPDEST PUSH32 0x4D696E696D616C466F727761726465723A207369676E617475726520646F6573 PUSH1 0x0 DUP3 ADD MSTORE PUSH32 0x206E6F74206D6174636820726571756573740000000000000000000000000000 PUSH1 0x20 DUP3 ADD MSTORE POP JUMP JUMPDEST PUSH1 0x0 PUSH2 0x1101 PUSH1 0x32 DUP4 PUSH2 0xED6 JUMP JUMPDEST SWAP2 POP PUSH2 0x110C DUP3 PUSH2 0x10A5 JUMP JUMPDEST PUSH1 0x40 DUP3 ADD SWAP1 POP SWAP2 SWAP1 POP JUMP JUMPDEST PUSH1 0x0 PUSH1 0x20 DUP3 ADD SWAP1 POP DUP2 DUP2 SUB PUSH1 0x0 DUP4 ADD MSTORE PUSH2 0x1130 DUP2 PUSH2 0x10F4 JUMP JUMPDEST SWAP1 POP SWAP2 SWAP1 POP JUMP JUMPDEST PUSH32 0x4E487B7100000000000000000000000000000000000000000000000000000000 PUSH1 0x0 MSTORE PUSH1 0x11 PUSH1 0x4 MSTORE PUSH1 0x24 PUSH1 0x0 REVERT JUMPDEST PUSH1 0x0 PUSH2 0x1171 DUP3 PUSH2 0xC7C JUMP JUMPDEST SWAP2 POP PUSH2 0x117C DUP4 PUSH2 0xC7C JUMP JUMPDEST SWAP3 POP DUP3 DUP3 ADD SWAP1 POP DUP1 DUP3 GT ISZERO PUSH2 0x1194 JUMPI PUSH2 0x1193 PUSH2 0x1137 JUMP JUMPDEST JUMPDEST SWAP3 SWAP2 POP POP JUMP JUMPDEST PUSH1 0x0 DUP1 REVERT JUMPDEST PUSH1 0x0 DUP1 REVERT JUMPDEST PUSH1 0x0 DUP1 REVERT JUMPDEST PUSH1 0x0 DUP1 DUP4 CALLDATALOAD PUSH1 0x1 PUSH1 0x20 SUB DUP5 CALLDATASIZE SUB SUB DUP2 SLT PUSH2 0x11C6 JUMPI PUSH2 0x11C5 PUSH2 0x119A JUMP JUMPDEST JUMPDEST DUP1 DUP5 ADD SWAP3 POP DUP3 CALLDATALOAD SWAP2 POP PUSH8 0xFFFFFFFFFFFFFFFF DUP3 GT ISZERO PUSH2 0x11E8 JUMPI PUSH2 0x11E7 PUSH2 0x119F JUMP JUMPDEST JUMPDEST PUSH1 0x20 DUP4 ADD SWAP3 POP PUSH1 0x1 DUP3 MUL CALLDATASIZE SUB DUP4 SGT ISZERO PUSH2 0x1204 JUMPI PUSH2 0x1203 PUSH2 0x11A4 JUMP JUMPDEST JUMPDEST POP SWAP3 POP SWAP3 SWAP1 POP JUMP JUMPDEST PUSH1 0x0 DUP2 SWAP1 POP SWAP3 SWAP2 POP POP JUMP JUMPDEST DUP3 DUP2 DUP4 CALLDATACOPY PUSH1 0x0 DUP4 DUP4 ADD MSTORE POP POP POP JUMP JUMPDEST PUSH1 0x0 PUSH2 0x1232 DUP4 DUP6 PUSH2 0x120C JUMP JUMPDEST SWAP4 POP PUSH2 0x123F DUP4 DUP6 DUP5 PUSH2 0x1217 JUMP JUMPDEST DUP3 DUP5 ADD SWAP1 POP SWAP4 SWAP3 POP POP POP JUMP JUMPDEST PUSH1 0x0 DUP2 PUSH1 0x60 SHL SWAP1 POP SWAP2 SWAP1 POP JUMP JUMPDEST PUSH1 0x0 PUSH2 0x1263 DUP3 PUSH2 0x124B JUMP JUMPDEST SWAP1 POP SWAP2 SWAP1 POP JUMP JUMPDEST PUSH1 0x0 PUSH2 0x1275 DUP3 PUSH2 0x1258 JUMP JUMPDEST SWAP1 POP SWAP2 SWAP1 POP JUMP JUMPDEST PUSH2 0x128D PUSH2 0x1288 DUP3 PUSH2 0xC11 JUMP JUMPDEST PUSH2 0x126A JUMP JUMPDEST DUP3 MSTORE POP POP JUMP JUMPDEST PUSH1 0x0 PUSH2 0x12A0 DUP3 DUP6 DUP8 PUSH2 0x1226 JUMP JUMPDEST SWAP2 POP PUSH2 0x12AC DUP3 DUP5 PUSH2 0x127C JUMP JUMPDEST PUSH1 0x14 DUP3 ADD SWAP2 POP DUP2 SWAP1 POP SWAP5 SWAP4 POP POP POP POP JUMP JUMPDEST PUSH1 0x0 PUSH2 0x12C8 DUP3 PUSH2 0xDD0 JUMP JUMPDEST PUSH2 0x12D2 DUP2 DUP6 PUSH2 0x120C JUMP JUMPDEST SWAP4 POP PUSH2 0x12E2 DUP2 DUP6 PUSH1 0x20 DUP7 ADD PUSH2 0xDEC JUMP JUMPDEST DUP1 DUP5 ADD SWAP2 POP POP SWAP3 SWAP2 POP POP JUMP JUMPDEST PUSH1 0x0 PUSH2 0x12FA DUP3 DUP5 PUSH2 0x12BD JUMP JUMPDEST SWAP2 POP DUP2 SWAP1 POP SWAP3 SWAP2 POP POP JUMP JUMPDEST PUSH32 0x4E487B7100000000000000000000000000000000000000000000000000000000 PUSH1 0x0 MSTORE PUSH1 0x12 PUSH1 0x4 MSTORE PUSH1 0x24 PUSH1 0x0 REVERT JUMPDEST PUSH1 0x0 PUSH2 0x133F DUP3 PUSH2 0xC7C JUMP JUMPDEST SWAP2 POP PUSH2 0x134A DUP4 PUSH2 0xC7C JUMP JUMPDEST SWAP3 POP DUP3 PUSH2 0x135A JUMPI PUSH2 0x1359 PUSH2 0x1305 JUMP JUMPDEST JUMPDEST DUP3 DUP3 DIV SWAP1 POP SWAP3 SWAP2 POP POP JUMP JUMPDEST PUSH32 0x4E487B7100000000000000000000000000000000000000000000000000000000 PUSH1 0x0 MSTORE PUSH1 0x41 PUSH1 0x4 MSTORE PUSH1 0x24 PUSH1 0x0 REVERT JUMPDEST PUSH1 0x0 PUSH2 0x13A1 DUP3 DUP5 DUP7 PUSH2 0x1226 JUMP JUMPDEST SWAP2 POP DUP2 SWAP1 POP SWAP4 SWAP3 POP POP POP JUMP JUMPDEST PUSH1 0x0 PUSH1 0xE0 DUP3 ADD SWAP1 POP PUSH2 0x13C2 PUSH1 0x0 DUP4 ADD DUP11 PUSH2 0xF39 JUMP JUMPDEST PUSH2 0x13CF PUSH1 0x20 DUP4 ADD DUP10 PUSH2 0xF20 JUMP JUMPDEST PUSH2 0x13DC PUSH1 0x40 DUP4 ADD DUP9 PUSH2 0xF20 JUMP JUMPDEST PUSH2 0x13E9 PUSH1 0x60 DUP4 ADD DUP8 PUSH2 0xC86 JUMP JUMPDEST PUSH2 0x13F6 PUSH1 0x80 DUP4 ADD DUP7 PUSH2 0xC86 JUMP JUMPDEST PUSH2 0x1403 PUSH1 0xA0 DUP4 ADD DUP6 PUSH2 0xC86 JUMP JUMPDEST PUSH2 0x1410 PUSH1 0xC0 DUP4 ADD DUP5 PUSH2 0xF39 JUMP JUMPDEST SWAP9 SWAP8 POP POP POP POP POP POP POP POP JUMP JUMPDEST PUSH32 0x4E487B7100000000000000000000000000000000000000000000000000000000 PUSH1 0x0 MSTORE PUSH1 0x22 PUSH1 0x4 MSTORE PUSH1 0x24 PUSH1 0x0 REVERT JUMPDEST PUSH1 0x0 PUSH1 0x2 DUP3 DIV SWAP1 POP PUSH1 0x1 DUP3 AND DUP1 PUSH2 0x1463 JUMPI PUSH1 0x7F DUP3 AND SWAP2 POP JUMPDEST PUSH1 0x20 DUP3 LT DUP2 SUB PUSH2 0x1476 JUMPI PUSH2 0x1475 PUSH2 0x141C JUMP JUMPDEST JUMPDEST POP SWAP2 SWAP1 POP JUMP JUMPDEST PUSH32 0x4E487B7100000000000000000000000000000000000000000000000000000000 PUSH1 0x0 MSTORE PUSH1 0x21 PUSH1 0x4 MSTORE PUSH1 0x24 PUSH1 0x0 REVERT JUMPDEST PUSH1 0x0 PUSH1 0x20 DUP3 ADD SWAP1 POP PUSH2 0x14C0 PUSH1 0x0 DUP4 ADD DUP5 PUSH2 0xF39 JUMP JUMPDEST SWAP3 SWAP2 POP POP JUMP JUMPDEST PUSH1 0x0 PUSH1 0xA0 DUP3 ADD SWAP1 POP PUSH2 0x14DB PUSH1 0x0 DUP4 ADD DUP9 PUSH2 0xF39 JUMP JUMPDEST PUSH2 0x14E8 PUSH1 0x20 DUP4 ADD DUP8 PUSH2 0xF39 JUMP JUMPDEST PUSH2 0x14F5 PUSH1 0x40 DUP4 ADD DUP7 PUSH2 0xF39 JUMP JUMPDEST PUSH2 0x1502 PUSH1 0x60 DUP4 ADD DUP6 PUSH2 0xC86 JUMP JUMPDEST PUSH2 0x150F PUSH1 0x80 DUP4 ADD DUP5 PUSH2 0xF20 JUMP JUMPDEST SWAP7 SWAP6 POP POP POP POP POP POP JUMP JUMPDEST PUSH1 0x0 PUSH1 0xFF DUP3 AND SWAP1 POP SWAP2 SWAP1 POP JUMP JUMPDEST PUSH2 0x152F DUP2 PUSH2 0x1519 JUMP JUMPDEST DUP3 MSTORE POP POP JUMP JUMPDEST PUSH1 0x0 PUSH1 0x80 DUP3 ADD SWAP1 POP PUSH2 0x154A PUSH1 0x0 DUP4 ADD DUP8 PUSH2 0xF39 JUMP JUMPDEST PUSH2 0x1557 PUSH1 0x20 DUP4 ADD DUP7 PUSH2 0x1526 JUMP JUMPDEST PUSH2 0x1564 PUSH1 0x40 DUP4 ADD DUP6 PUSH2 0xF39 JUMP JUMPDEST PUSH2 0x1571 PUSH1 0x60 DUP4 ADD DUP5 PUSH2 0xF39 JUMP JUMPDEST SWAP6 SWAP5 POP POP POP POP POP JUMP INVALID LOG2 PUSH5 0x6970667358 0x22 SLT KECCAK256 PUSH11 0xE0C16489215D643FC4ADBC 0xBF DUP9 LOG4 0xCF 0xCD SGT DUP8 0xB7 0xAA LOG0 EXTCODESIZE 0xD2 0x28 CALLDATACOPY 0xED SWAP3 0xFC MSTORE 0xDF PUSH14 0x64736F6C63430008140033000000 "},"methodIdentifiers":{"eip712Domain()":"84b0196e","execute((address,address,uint256,uint256,uint256,bytes),bytes)":"47153f82","getNonce(address)":"2d0335ab","verify((address,address,uint256,uint256,uint256,bytes),bytes)":"bf5d3bdb"}}}}}