{
  "_format": "hh-sol-artifact-1",
  "contractName": "MinimalForwarder",
  "sourceName": "contracts/MinimalForwarder.sol",
  "abi": [
    {
      "inputs": [],
      "stateMutability": "nonpayable",
      "type": "constructor"
    },
    {
      "inputs": [],
      "name": "ECDSAInvalidSignature",
      "type": "error"
    },
    {
      "inputs": [
        {
          "internalType": "uint256",
          "name": "length",
          "type": "uint256"
        }
      ],
      "name": "ECDSAInvalidSignatureLength",
      "type": "error"
    },
    {
      "inputs": [
        {
          "internalType": "bytes32",
          "name": "s",
          "type": "bytes32"
        }
      ],
      "name": "ECDSAInvalidSignatureS",
      "type": "error"
    },
    {
      "inputs": [],
      "name": "InvalidShortString",
      "type": "error"
    },
    {
      "inputs": [
        {
          "internalType": "string",
          "name": "str",
          "type": "string"
        }
      ],
      "name": "StringTooLong",
      "type": "error"
    },
    {
      "anonymous": false,
      "inputs": [],
      "name": "EIP712DomainChanged",
      "type": "event"
    },
    {
      "inputs": [],
      "name": "eip712Domain",
      "outputs": [
        {
          "internalType": "bytes1",
          "name": "fields",
          "type": "bytes1"
        },
        {
          "internalType": "string",
          "name": "name",
          "type": "string"
        },
        {
          "internalType": "string",
          "name": "version",
          "type": "string"
        },
        {
          "internalType": "uint256",
          "name": "chainId",
          "type": "uint256"
        },
        {
          "internalType": "address",
          "name": "verifyingContract",
          "type": "address"
        },
        {
          "internalType": "bytes32",
          "name": "salt",
          "type": "bytes32"
        },
        {
          "internalType": "uint256[]",
          "name": "extensions",
          "type": "uint256[]"
        }
      ],
      "stateMutability": "view",
      "type": "function"
    },
    {
      "inputs": [
        {
          "components": [
            {
              "internalType": "address",
              "name": "from",
              "type": "address"
            },
            {
              "internalType": "address",
              "name": "to",
              "type": "address"
            },
            {
              "internalType": "uint256",
              "name": "value",
              "type": "uint256"
            },
            {
              "internalType": "uint256",
              "name": "gas",
              "type": "uint256"
            },
            {
              "internalType": "uint256",
              "name": "nonce",
              "type": "uint256"
            },
            {
              "internalType": "bytes",
              "name": "data",
              "type": "bytes"
            }
          ],
          "internalType": "struct MinimalForwarder.ForwardRequest",
          "name": "req",
          "type": "tuple"
        },
        {
          "internalType": "bytes",
          "name": "signature",
          "type": "bytes"
        }
      ],
      "name": "execute",
      "outputs": [
        {
          "internalType": "bool",
          "name": "",
          "type": "bool"
        },
        {
          "internalType": "bytes",
          "name": "",
          "type": "bytes"
        }
      ],
      "stateMutability": "payable",
      "type": "function"
    },
    {
      "inputs": [
        {
          "internalType": "address",
          "name": "from",
          "type": "address"
        }
      ],
      "name": "getNonce",
      "outputs": [
        {
          "internalType": "uint256",
          "name": "",
          "type": "uint256"
        }
      ],
      "stateMutability": "view",
      "type": "function"
    },
    {
      "inputs": [
        {
          "components": [
            {
              "internalType": "address",
              "name": "from",
              "type": "address"
            },
            {
              "internalType": "address",
              "name": "to",
              "type": "address"
            },
            {
              "internalType": "uint256",
              "name": "value",
              "type": "uint256"
            },
            {
              "internalType": "uint256",
              "name": "gas",
              "type": "uint256"
            },
            {
              "internalType": "uint256",
              "name": "nonce",
              "type": "uint256"
            },
            {
              "internalType": "bytes",
              "name": "data",
              "type": "bytes"
            }
          ],
          "internalType": "struct MinimalForwarder.ForwardRequest",
          "name": "req",
          "type": "tuple"
        },
        {
          "internalType": "bytes",
          "name": "signature",
          "type": "bytes"
        }
      ],
      "name": "verify",
      "outputs": [
        {
          "internalType": "bool",
          "name": "",
          "type": "bool"
        }
      ],
      "stateMutability": "view",
      "type": "function"
    }
  ],
  "bytecode": "0x6101606040523480156200001257600080fd5b506040518060400160405280601081526020017f4d696e696d616c466f72776172646572000000000000000000000000000000008152506040518060400160405280600581526020017f302e302e31000000000000000000000000000000000000000000000000000000815250620000956000836200013560201b90919060201c565b6101208181525050620000b36001826200013560201b90919060201c565b6101408181525050818051906020012060e08181525050808051906020012061010081815250504660a08181525050620000f26200018d60201b60201c565b608081815250503073ffffffffffffffffffffffffffffffffffffffff1660c08173ffffffffffffffffffffffffffffffffffffffff16815250505050620007e5565b60006020835110156200015b576200015383620001ea60201b60201c565b905062000187565b826200016d836200025760201b60201c565b60000190816200017e9190620004db565b5060ff60001b90505b92915050565b60007f8b73c3c69bb8fe3d512ecc4cf759cc79239f7b179b0ffacaa9a75d522b39400f60e051610100514630604051602001620001cf95949392919062000633565b60405160208183030381529060405280519060200120905090565b600080829050601f815111156200023a57826040517f305a27a90000000000000000000000000000000000000000000000000000000081526004016200023191906200071f565b60405180910390fd5b805181620002489062000775565b60001c1760001b915050919050565b6000819050919050565b600081519050919050565b7f4e487b7100000000000000000000000000000000000000000000000000000000600052604160045260246000fd5b7f4e487b7100000000000000000000000000000000000000000000000000000000600052602260045260246000fd5b60006002820490506001821680620002e357607f821691505b602082108103620002f957620002f86200029b565b5b50919050565b60008190508160005260206000209050919050565b60006020601f8301049050919050565b600082821b905092915050565b600060088302620003637fffffffffffffffffffffffffffffffffffffffffffffffffffffffffffffffff8262000324565b6200036f868362000324565b95508019841693508086168417925050509392505050565b6000819050919050565b6000819050919050565b6000620003bc620003b6620003b08462000387565b62000391565b62000387565b9050919050565b6000819050919050565b620003d8836200039b565b620003f0620003e782620003c3565b84845462000331565b825550505050565b600090565b62000407620003f8565b62000414818484620003cd565b505050565b5b818110156200043c5762000430600082620003fd565b6001810190506200041a565b5050565b601f8211156200048b576200045581620002ff565b620004608462000314565b8101602085101562000470578190505b620004886200047f8562000314565b83018262000419565b50505b505050565b600082821c905092915050565b6000620004b06000198460080262000490565b1980831691505092915050565b6000620004cb83836200049d565b9150826002028217905092915050565b620004e68262000261565b67ffffffffffffffff8111156200050257620005016200026c565b5b6200050e8254620002ca565b6200051b82828562000440565b600060209050601f8311600181146200055357600084156200053e578287015190505b6200054a8582620004bd565b865550620005ba565b601f1984166200056386620002ff565b60005b828110156200058d5784890151825560018201915060208501945060208101905062000566565b86831015620005ad5784890151620005a9601f8916826200049d565b8355505b6001600288020188555050505b505050505050565b6000819050919050565b620005d781620005c2565b82525050565b620005e88162000387565b82525050565b600073ffffffffffffffffffffffffffffffffffffffff82169050919050565b60006200061b82620005ee565b9050919050565b6200062d816200060e565b82525050565b600060a0820190506200064a6000830188620005cc565b620006596020830187620005cc565b620006686040830186620005cc565b620006776060830185620005dd565b62000686608083018462000622565b9695505050505050565b600082825260208201905092915050565b60005b83811015620006c1578082015181840152602081019050620006a4565b60008484015250505050565b6000601f19601f8301169050919050565b6000620006eb8262000261565b620006f7818562000690565b935062000709818560208601620006a1565b6200071481620006cd565b840191505092915050565b600060208201905081810360008301526200073b8184620006de565b905092915050565b600081519050919050565b6000819050602082019050919050565b60006200076c8251620005c2565b80915050919050565b6000620007828262000743565b826200078e846200074e565b90506200079b816200075e565b92506020821015620007de57620007d97fffffffffffffffffffffffffffffffffffffffffffffffffffffffffffffffff8360200360080262000324565b831692505b5050919050565b60805160a05160c05160e0516101005161012051610140516115b06200084060003960006105b90152600061057e01526000610a5301526000610a32015260006106e50152600061073b0152600061076401526115b06000f3fe60806040526004361061003f5760003560e01c80632d0335ab1461004457806347153f821461008157806384b0196e146100b2578063bf5d3bdb146100e3575b600080fd5b34801561005057600080fd5b5061006b60048036038101906100669190610c4f565b610120565b6040516100789190610c95565b60405180910390f35b61009b60048036038101906100969190610d39565b610169565b6040516100a9929190610e60565b60405180910390f35b3480156100be57600080fd5b506100c7610315565b6040516100da9796959493929190611006565b60405180910390f35b3480156100ef57600080fd5b5061010a60048036038101906101059190610d39565b6103bf565b604051610117919061108a565b60405180910390f35b6000600260008373ffffffffffffffffffffffffffffffffffffffff1673ffffffffffffffffffffffffffffffffffffffff168152602001908152602001600020549050919050565b600060606101788585856103bf565b6101b7576040517f08c379a00000000000000000000000000000000000000000000000000000000081526004016101ae90611117565b60405180910390fd5b600185608001356101c89190611166565b600260008760000160208101906101df9190610c4f565b73ffffffffffffffffffffffffffffffffffffffff1673ffffffffffffffffffffffffffffffffffffffff168152602001908152602001600020819055506000808660200160208101906102339190610c4f565b73ffffffffffffffffffffffffffffffffffffffff1687606001358860400135898060a0019061026391906111a9565b8b60000160208101906102769190610c4f565b60405160200161028893929190611293565b6040516020818303038152906040526040516102a491906112ee565b600060405180830381858888f193505050503d80600081146102e2576040519150601f19603f3d011682016040523d82523d6000602084013e6102e7565b606091505b5091509150603f87606001356102fd9190611334565b5a1161030557fe5b8181935093505050935093915050565b600060608060008060006060610329610575565b6103316105b0565b46306000801b600067ffffffffffffffff81111561035257610351611365565b5b6040519080825280602002602001820160405280156103805781602001602082028036833780820191505090505b507f0f00000000000000000000000000000000000000000000000000000000000000959493929190965096509650965096509650965090919293949596565b6000806104c884848080601f016020809104026020016040519081016040528093929190818152602001838380828437600081840152601f19601f820116905080830192505050505050506104ba7fdd8f4b70b0f4393e889bd39128a30628a78b61816a9eb8199759e7a349657e488860000160208101906104419190610c4f565b8960200160208101906104549190610c4f565b8a604001358b606001358c608001358d8060a0019061047391906111a9565b604051610481929190611394565b604051809103902060405160200161049f97969594939291906113ad565b604051602081830303815290604052805190602001206105eb565b61060590919063ffffffff16565b90508460800135600260008760000160208101906104e69190610c4f565b73ffffffffffffffffffffffffffffffffffffffff1673ffffffffffffffffffffffffffffffffffffffff1681526020019081526020016000205414801561056b575084600001602081019061053c9190610c4f565b73ffffffffffffffffffffffffffffffffffffffff168173ffffffffffffffffffffffffffffffffffffffff16145b9150509392505050565b60606105ab60007f000000000000000000000000000000000000000000000000000000000000000061063190919063ffffffff16565b905090565b60606105e660017f000000000000000000000000000000000000000000000000000000000000000061063190919063ffffffff16565b905090565b60006105fe6105f86106e1565b83610798565b9050919050565b60008060008061061586866107d9565b9250925092506106258282610835565b82935050505092915050565b606060ff60001b831461064e5761064783610999565b90506106db565b81805461065a9061144b565b80601f01602080910402602001604051908101604052809291908181526020018280546106869061144b565b80156106d35780601f106106a8576101008083540402835291602001916106d3565b820191906000526020600020905b8154815290600101906020018083116106b657829003601f168201915b505050505090505b92915050565b60007f000000000000000000000000000000000000000000000000000000000000000073ffffffffffffffffffffffffffffffffffffffff163073ffffffffffffffffffffffffffffffffffffffff1614801561075d57507f000000000000000000000000000000000000000000000000000000000000000046145b1561078a577f00000000000000000000000000000000000000000000000000000000000000009050610795565b610792610a0d565b90505b90565b60006040517f190100000000000000000000000000000000000000000000000000000000000081528360028201528260228201526042812091505092915050565b6000806000604184510361081e5760008060006020870151925060408701519150606087015160001a905061081088828585610aa3565b95509550955050505061082e565b60006002855160001b9250925092505b9250925092565b600060038111156108495761084861147c565b5b82600381111561085c5761085b61147c565b5b031561099557600160038111156108765761087561147c565b5b8260038111156108895761088861147c565b5b036108c0576040517ff645eedf00000000000000000000000000000000000000000000000000000000815260040160405180910390fd5b600260038111156108d4576108d361147c565b5b8260038111156108e7576108e661147c565b5b0361092c578060001c6040517ffce698f70000000000000000000000000000000000000000000000000000000081526004016109239190610c95565b60405180910390fd5b60038081111561093f5761093e61147c565b5b8260038111156109525761095161147c565b5b0361099457806040517fd78bce0c00000000000000000000000000000000000000000000000000000000815260040161098b91906114ab565b60405180910390fd5b5b5050565b606060006109a683610b97565b90506000602067ffffffffffffffff8111156109c5576109c4611365565b5b6040519080825280601f01601f1916602001820160405280156109f75781602001600182028036833780820191505090505b5090508181528360208201528092505050919050565b60007f8b73c3c69bb8fe3d512ecc4cf759cc79239f7b179b0ffacaa9a75d522b39400f7f00000000000000000000000000000000000000000000000000000000000000007f00000000000000000000000000000000000000000000000000000000000000004630604051602001610a889594939291906114c6565b60405160208183030381529060405280519060200120905090565b60008060007f7fffffffffffffffffffffffffffffff5d576e7357a4501ddfe92f46681b20a08460001c1115610ae3576000600385925092509250610b8d565b600060018888888860405160008152602001604052604051610b089493929190611535565b6020604051602081039080840390855afa158015610b2a573d6000803e3d6000fd5b505050602060405103519050600073ffffffffffffffffffffffffffffffffffffffff168173ffffffffffffffffffffffffffffffffffffffff1603610b7e57600060016000801b93509350935050610b8d565b8060008060001b935093509350505b9450945094915050565b60008060ff8360001c169050601f811115610bde576040517fb3512b0c00000000000000000000000000000000000000000000000000000000815260040160405180910390fd5b80915050919050565b600080fd5b600080fd5b600073ffffffffffffffffffffffffffffffffffffffff82169050919050565b6000610c1c82610bf1565b9050919050565b610c2c81610c11565b8114610c3757600080fd5b50565b600081359050610c4981610c23565b92915050565b600060208284031215610c6557610c64610be7565b5b6000610c7384828501610c3a565b91505092915050565b6000819050919050565b610c8f81610c7c565b82525050565b6000602082019050610caa6000830184610c86565b92915050565b600080fd5b600060c08284031215610ccb57610cca610cb0565b5b81905092915050565b600080fd5b600080fd5b600080fd5b60008083601f840112610cf957610cf8610cd4565b5b8235905067ffffffffffffffff811115610d1657610d15610cd9565b5b602083019150836001820283011115610d3257610d31610cde565b5b9250929050565b600080600060408486031215610d5257610d51610be7565b5b600084013567ffffffffffffffff811115610d7057610d6f610bec565b5b610d7c86828701610cb5565b935050602084013567ffffffffffffffff811115610d9d57610d9c610bec565b5b610da986828701610ce3565b92509250509250925092565b60008115159050919050565b610dca81610db5565b82525050565b600081519050919050565b600082825260208201905092915050565b60005b83811015610e0a578082015181840152602081019050610def565b60008484015250505050565b6000601f19601f8301169050919050565b6000610e3282610dd0565b610e3c8185610ddb565b9350610e4c818560208601610dec565b610e5581610e16565b840191505092915050565b6000604082019050610e756000830185610dc1565b8181036020830152610e878184610e27565b90509392505050565b60007fff0000000000000000000000000000000000000000000000000000000000000082169050919050565b610ec581610e90565b82525050565b600081519050919050565b600082825260208201905092915050565b6000610ef282610ecb565b610efc8185610ed6565b9350610f0c818560208601610dec565b610f1581610e16565b840191505092915050565b610f2981610c11565b82525050565b6000819050919050565b610f4281610f2f565b82525050565b600081519050919050565b600082825260208201905092915050565b6000819050602082019050919050565b610f7d81610c7c565b82525050565b6000610f8f8383610f74565b60208301905092915050565b6000602082019050919050565b6000610fb382610f48565b610fbd8185610f53565b9350610fc883610f64565b8060005b83811015610ff9578151610fe08882610f83565b9750610feb83610f9b565b925050600181019050610fcc565b5085935050505092915050565b600060e08201905061101b600083018a610ebc565b818103602083015261102d8189610ee7565b905081810360408301526110418188610ee7565b90506110506060830187610c86565b61105d6080830186610f20565b61106a60a0830185610f39565b81810360c083015261107c8184610fa8565b905098975050505050505050565b600060208201905061109f6000830184610dc1565b92915050565b7f4d696e696d616c466f727761726465723a207369676e617475726520646f657360008201527f206e6f74206d6174636820726571756573740000000000000000000000000000602082015250565b6000611101603283610ed6565b915061110c826110a5565b604082019050919050565b60006020820190508181036000830152611130816110f4565b9050919050565b7f4e487b7100000000000000000000000000000000000000000000000000000000600052601160045260246000fd5b600061117182610c7c565b915061117c83610c7c565b925082820190508082111561119457611193611137565b5b92915050565b600080fd5b600080fd5b600080fd5b600080833560016020038436030381126111c6576111c561119a565b5b80840192508235915067ffffffffffffffff8211156111e8576111e761119f565b5b602083019250600182023603831315611204576112036111a4565b5b509250929050565b600081905092915050565b82818337600083830152505050565b6000611232838561120c565b935061123f838584611217565b82840190509392505050565b60008160601b9050919050565b60006112638261124b565b9050919050565b600061127582611258565b9050919050565b61128d61128882610c11565b61126a565b82525050565b60006112a0828587611226565b91506112ac828461127c565b601482019150819050949350505050565b60006112c882610dd0565b6112d2818561120c565b93506112e2818560208601610dec565b80840191505092915050565b60006112fa82846112bd565b915081905092915050565b7f4e487b7100000000000000000000000000000000000000000000000000000000600052601260045260246000fd5b600061133f82610c7c565b915061134a83610c7c565b92508261135a57611359611305565b5b828204905092915050565b7f4e487b7100000000000000000000000000000000000000000000000000000000600052604160045260246000fd5b60006113a1828486611226565b91508190509392505050565b600060e0820190506113c2600083018a610f39565b6113cf6020830189610f20565b6113dc6040830188610f20565b6113e96060830187610c86565b6113f66080830186610c86565b61140360a0830185610c86565b61141060c0830184610f39565b98975050505050505050565b7f4e487b7100000000000000000000000000000000000000000000000000000000600052602260045260246000fd5b6000600282049050600182168061146357607f821691505b6020821081036114765761147561141c565b5b50919050565b7f4e487b7100000000000000000000000000000000000000000000000000000000600052602160045260246000fd5b60006020820190506114c06000830184610f39565b92915050565b600060a0820190506114db6000830188610f39565b6114e86020830187610f39565b6114f56040830186610f39565b6115026060830185610c86565b61150f6080830184610f20565b9695505050505050565b600060ff82169050919050565b61152f81611519565b82525050565b600060808201905061154a6000830187610f39565b6115576020830186611526565b6115646040830185610f39565b6115716060830184610f39565b9594505050505056fea26469706673582212206ae0c16489215d643fc4adbcbf88a4cfcd1387b7aaa03bd22837ed92fc52df6d64736f6c63430008140033",
  "linkReferences": {},
  "deployedLinkReferences": {}
}