{
  "_format": "hh-sol-artifact-1",
  "contractName": "StudentRegistry",
  "sourceName": "contracts/Student.sol",
  "abi": [
    {
      "inputs": [
        {
          "internalType": "address",
          "name": "_trustedForwarder",
          "type": "address"
        }
      ],
      "stateMutability": "nonpayable",
      "type": "constructor"
    },
    {
      "inputs": [
        {
          "internalType": "address",
          "name": "owner",
          "type": "address"
        }
      ],
      "name": "OwnableInvalidOwner",
      "type": "error"
    },
    {
      "inputs": [
        {
          "internalType": "address",
          "name": "account",
          "type": "address"
        }
      ],
      "name": "OwnableUnauthorizedAccount",
      "type": "error"
    },
    {
      "anonymous": false,
      "inputs": [
        {
          "indexed": true,
          "internalType": "address",
          "name": "previousOwner",
          "type": "address"
        },
        {
          "indexed": true,
          "internalType": "address",
          "name": "newOwner",
          "type": "address"
        }
      ],
      "name": "OwnershipTransferred",
      "type": "event"
    },
    {
      "anonymous": false,
      "inputs": [
        {
          "indexed": true,
          "internalType": "address",
          "name": "student",
          "type": "address"
        },
        {
          "indexed": false,
          "internalType": "string",
          "name": "studentID",
          "type": "string"
        }
      ],
      "name": "StudentRegistered",
      "type": "event"
    },
    {
      "anonymous": false,
      "inputs": [
        {
          "indexed": true,
          "internalType": "address",
          "name": "student",
          "type": "address"
        },
        {
          "indexed": false,
          "internalType": "string",
          "name": "newStudentID",
          "type": "string"
        }
      ],
      "name": "StudentUpdated",
      "type": "event"
    },
    {
      "inputs": [
        {
          "internalType": "address",
          "name": "_studentAddress",
          "type": "address"
        }
      ],
      "name": "getStudent",
      "outputs": [
        {
          "internalType": "string",
          "name": "",
          "type": "string"
        }
      ],
      "stateMutability": "view",
      "type": "function"
    },
    {
      "inputs": [
        {
          "internalType": "address",
          "name": "forwarder",
          "type": "address"
        }
      ],
      "name": "isTrustedForwarder",
      "outputs": [
        {
          "internalType": "bool",
          "name": "",
          "type": "bool"
        }
      ],
      "stateMutability": "view",
      "type": "function"
    },
    {
      "inputs": [],
      "name": "owner",
      "outputs": [
        {
          "internalType": "address",
          "name": "",
          "type": "address"
        }
      ],
      "stateMutability": "view",
      "type": "function"
    },
    {
      "inputs": [
        {
          "internalType": "string",
          "name": "_studentID",
          "type": "string"
        }
      ],
      "name": "registerStudent",
      "outputs": [],
      "stateMutability": "nonpayable",
      "type": "function"
    },
    {
      "inputs": [],
      "name": "renounceOwnership",
      "outputs": [],
      "stateMutability": "nonpayable",
      "type": "function"
    },
    {
      "inputs": [
        {
          "internalType": "address",
          "name": "newOwner",
          "type": "address"
        }
      ],
      "name": "transferOwnership",
      "outputs": [],
      "stateMutability": "nonpayable",
      "type": "function"
    },
    {
      "inputs": [],
      "name": "trustedForwarder",
      "outputs": [
        {
          "internalType": "address",
          "name": "",
          "type": "address"
        }
      ],
      "stateMutability": "view",
      "type": "function"
    },
    {
      "inputs": [
        {
          "internalType": "address",
          "name": "_studentAddress",
          "type": "address"
        },
        {
          "internalType": "string",
          "name": "_newStudentID",
          "type": "string"
        }
      ],
      "name": "updateStudent",
      "outputs": [],
      "stateMutability": "nonpayable",
      "type": "function"
    }
  ],
  "bytecode": "0x60a06040523480156200001157600080fd5b50604051620015873803806200158783398181016040528101906200003791906200022a565b33818073ffffffffffffffffffffffffffffffffffffffff1660808173ffffffffffffffffffffffffffffffffffffffff168152505050600073ffffffffffffffffffffffffffffffffffffffff168173ffffffffffffffffffffffffffffffffffffffff1603620000e35760006040517f1e4fbdf7000000000000000000000000000000000000000000000000000000008152600401620000da91906200026d565b60405180910390fd5b620000f481620000fc60201b60201c565b50506200028a565b60008060009054906101000a900473ffffffffffffffffffffffffffffffffffffffff169050816000806101000a81548173ffffffffffffffffffffffffffffffffffffffff021916908373ffffffffffffffffffffffffffffffffffffffff1602179055508173ffffffffffffffffffffffffffffffffffffffff168173ffffffffffffffffffffffffffffffffffffffff167f8be0079c531659141344cd1fd0a4f28419497f9722a3daafe3b4186f6b6457e060405160405180910390a35050565b600080fd5b600073ffffffffffffffffffffffffffffffffffffffff82169050919050565b6000620001f282620001c5565b9050919050565b6200020481620001e5565b81146200021057600080fd5b50565b6000815190506200022481620001f9565b92915050565b600060208284031215620002435762000242620001c0565b5b6000620002538482850162000213565b91505092915050565b6200026781620001e5565b82525050565b60006020820190506200028460008301846200025c565b92915050565b6080516112e1620002a6600039600061068801526112e16000f3fe608060405234801561001057600080fd5b50600436106100885760003560e01c806371e174451161005b57806371e17445146101135780637da0a8771461012f5780638da5cb5b1461014d578063f2fde38b1461016b57610088565b8063302056241461008d578063572b6c05146100a95780636b7b44d7146100d9578063715018a614610109575b600080fd5b6100a760048036038101906100a29190610b02565b610187565b005b6100c360048036038101906100be9190610b5e565b610304565b6040516100d09190610ba6565b60405180910390f35b6100f360048036038101906100ee9190610b5e565b610343565b6040516101009190610c40565b60405180910390f35b6101116104a6565b005b61012d60048036038101906101289190610c62565b6104ba565b005b610137610684565b6040516101449190610cba565b60405180910390f35b6101556106ac565b6040516101629190610cba565b60405180910390f35b61018560048036038101906101809190610b5e565b6106d5565b005b61018f61075b565b600160008373ffffffffffffffffffffffffffffffffffffffff1673ffffffffffffffffffffffffffffffffffffffff16815260200190815260200160002060010160009054906101000a900460ff1661021e576040517f08c379a000000000000000000000000000000000000000000000000000000000815260040161021590610d21565b60405180910390fd5b6000815111610262576040517f08c379a000000000000000000000000000000000000000000000000000000000815260040161025990610d8d565b60405180910390fd5b80600160008473ffffffffffffffffffffffffffffffffffffffff1673ffffffffffffffffffffffffffffffffffffffff16815260200190815260200160002060000190816102b19190610fc3565b508173ffffffffffffffffffffffffffffffffffffffff167f5d96587cd7638c0254288e0ebecb53200b69da0dd775bcc5be707492a811ed11826040516102f89190610c40565b60405180910390a25050565b600061030e610684565b73ffffffffffffffffffffffffffffffffffffffff168273ffffffffffffffffffffffffffffffffffffffff16149050919050565b6060600160008373ffffffffffffffffffffffffffffffffffffffff1673ffffffffffffffffffffffffffffffffffffffff16815260200190815260200160002060010160009054906101000a900460ff166103d4576040517f08c379a00000000000000000000000000000000000000000000000000000000081526004016103cb90610d21565b60405180910390fd5b600160008373ffffffffffffffffffffffffffffffffffffffff1673ffffffffffffffffffffffffffffffffffffffff168152602001908152602001600020600001805461042190610ddc565b80601f016020809104026020016040519081016040528092919081815260200182805461044d90610ddc565b801561049a5780601f1061046f5761010080835404028352916020019161049a565b820191906000526020600020905b81548152906001019060200180831161047d57829003601f168201915b50505050509050919050565b6104ae61075b565b6104b860006107e2565b565b600160006104c66108a6565b73ffffffffffffffffffffffffffffffffffffffff1673ffffffffffffffffffffffffffffffffffffffff16815260200190815260200160002060010160009054906101000a900460ff1615610551576040517f08c379a0000000000000000000000000000000000000000000000000000000008152600401610548906110e1565b60405180910390fd5b6000815111610595576040517f08c379a000000000000000000000000000000000000000000000000000000000815260040161058c9061114d565b60405180910390fd5b604051806040016040528082815260200160011515815250600160006105b96108a6565b73ffffffffffffffffffffffffffffffffffffffff1673ffffffffffffffffffffffffffffffffffffffff16815260200190815260200160002060008201518160000190816106089190610fc3565b5060208201518160010160006101000a81548160ff0219169083151502179055509050506106346108a6565b73ffffffffffffffffffffffffffffffffffffffff167fc1b20826100814ba286ac576fe980df1dbbcef3d904bb81f3d69a0e8280dc114826040516106799190610c40565b60405180910390a250565b60007f0000000000000000000000000000000000000000000000000000000000000000905090565b60008060009054906101000a900473ffffffffffffffffffffffffffffffffffffffff16905090565b6106dd61075b565b600073ffffffffffffffffffffffffffffffffffffffff168173ffffffffffffffffffffffffffffffffffffffff160361074f5760006040517f1e4fbdf70000000000000000000000000000000000000000000000000000000081526004016107469190610cba565b60405180910390fd5b610758816107e2565b50565b6107636108a6565b73ffffffffffffffffffffffffffffffffffffffff166107816106ac565b73ffffffffffffffffffffffffffffffffffffffff16146107e0576107a46108a6565b6040517f118cdaa70000000000000000000000000000000000000000000000000000000081526004016107d79190610cba565b60405180910390fd5b565b60008060009054906101000a900473ffffffffffffffffffffffffffffffffffffffff169050816000806101000a81548173ffffffffffffffffffffffffffffffffffffffff021916908373ffffffffffffffffffffffffffffffffffffffff1602179055508173ffffffffffffffffffffffffffffffffffffffff168173ffffffffffffffffffffffffffffffffffffffff167f8be0079c531659141344cd1fd0a4f28419497f9722a3daafe3b4186f6b6457e060405160405180910390a35050565b60006108b06108b5565b905090565b6000806000369050905060006108c961092a565b90506108d433610304565b80156108e05750808210155b1561091a5760003682846108f4919061119c565b908092610903939291906111da565b9061090e919061124c565b60601c92505050610927565b610922610939565b925050505b90565b6000610934610941565b905090565b600033905090565b60006014905090565b6000604051905090565b600080fd5b600080fd5b600073ffffffffffffffffffffffffffffffffffffffff82169050919050565b60006109898261095e565b9050919050565b6109998161097e565b81146109a457600080fd5b50565b6000813590506109b681610990565b92915050565b600080fd5b600080fd5b6000601f19601f8301169050919050565b7f4e487b7100000000000000000000000000000000000000000000000000000000600052604160045260246000fd5b610a0f826109c6565b810181811067ffffffffffffffff82111715610a2e57610a2d6109d7565b5b80604052505050565b6000610a4161094a565b9050610a4d8282610a06565b919050565b600067ffffffffffffffff821115610a6d57610a6c6109d7565b5b610a76826109c6565b9050602081019050919050565b82818337600083830152505050565b6000610aa5610aa084610a52565b610a37565b905082815260208101848484011115610ac157610ac06109c1565b5b610acc848285610a83565b509392505050565b600082601f830112610ae957610ae86109bc565b5b8135610af9848260208601610a92565b91505092915050565b60008060408385031215610b1957610b18610954565b5b6000610b27858286016109a7565b925050602083013567ffffffffffffffff811115610b4857610b47610959565b5b610b5485828601610ad4565b9150509250929050565b600060208284031215610b7457610b73610954565b5b6000610b82848285016109a7565b91505092915050565b60008115159050919050565b610ba081610b8b565b82525050565b6000602082019050610bbb6000830184610b97565b92915050565b600081519050919050565b600082825260208201905092915050565b60005b83811015610bfb578082015181840152602081019050610be0565b60008484015250505050565b6000610c1282610bc1565b610c1c8185610bcc565b9350610c2c818560208601610bdd565b610c35816109c6565b840191505092915050565b60006020820190508181036000830152610c5a8184610c07565b905092915050565b600060208284031215610c7857610c77610954565b5b600082013567ffffffffffffffff811115610c9657610c95610959565b5b610ca284828501610ad4565b91505092915050565b610cb48161097e565b82525050565b6000602082019050610ccf6000830184610cab565b92915050565b7f53747564656e74206e6f7420666f756e64000000000000000000000000000000600082015250565b6000610d0b601183610bcc565b9150610d1682610cd5565b602082019050919050565b60006020820190508181036000830152610d3a81610cfe565b9050919050565b7f4e65772053747564656e742049442063616e6e6f7420626520656d7074790000600082015250565b6000610d77601e83610bcc565b9150610d8282610d41565b602082019050919050565b60006020820190508181036000830152610da681610d6a565b9050919050565b7f4e487b7100000000000000000000000000000000000000000000000000000000600052602260045260246000fd5b60006002820490506001821680610df457607f821691505b602082108103610e0757610e06610dad565b5b50919050565b60008190508160005260206000209050919050565b60006020601f8301049050919050565b600082821b905092915050565b600060088302610e6f7fffffffffffffffffffffffffffffffffffffffffffffffffffffffffffffffff82610e32565b610e798683610e32565b95508019841693508086168417925050509392505050565b6000819050919050565b6000819050919050565b6000610ec0610ebb610eb684610e91565b610e9b565b610e91565b9050919050565b6000819050919050565b610eda83610ea5565b610eee610ee682610ec7565b848454610e3f565b825550505050565b600090565b610f03610ef6565b610f0e818484610ed1565b505050565b5b81811015610f3257610f27600082610efb565b600181019050610f14565b5050565b601f821115610f7757610f4881610e0d565b610f5184610e22565b81016020851015610f60578190505b610f74610f6c85610e22565b830182610f13565b50505b505050565b600082821c905092915050565b6000610f9a60001984600802610f7c565b1980831691505092915050565b6000610fb38383610f89565b9150826002028217905092915050565b610fcc82610bc1565b67ffffffffffffffff811115610fe557610fe46109d7565b5b610fef8254610ddc565b610ffa828285610f36565b600060209050601f83116001811461102d576000841561101b578287015190505b6110258582610fa7565b86555061108d565b601f19841661103b86610e0d565b60005b828110156110635784890151825560018201915060208501945060208101905061103e565b86831015611080578489015161107c601f891682610f89565b8355505b6001600288020188555050505b505050505050565b7f416c726561647920726567697374657265640000000000000000000000000000600082015250565b60006110cb601283610bcc565b91506110d682611095565b602082019050919050565b600060208201905081810360008301526110fa816110be565b9050919050565b7f53747564656e742049442063616e6e6f7420626520656d707479000000000000600082015250565b6000611137601a83610bcc565b915061114282611101565b602082019050919050565b600060208201905081810360008301526111668161112a565b9050919050565b7f4e487b7100000000000000000000000000000000000000000000000000000000600052601160045260246000fd5b60006111a782610e91565b91506111b283610e91565b92508282039050818111156111ca576111c961116d565b5b92915050565b600080fd5b600080fd5b600080858511156111ee576111ed6111d0565b5b838611156111ff576111fe6111d5565b5b6001850283019150848603905094509492505050565b600082905092915050565b60007fffffffffffffffffffffffffffffffffffffffff00000000000000000000000082169050919050565b60006112588383611215565b826112638135611220565b925060148210156112a35761129e7fffffffffffffffffffffffffffffffffffffffff00000000000000000000000083601403600802610e32565b831692505b50509291505056fea26469706673582212206830246f49d1701ea63087bf4bd80f7c6dc6151cf884c3f28c2ca3879c0f3c2664736f6c63430008140033",
  "linkReferences": {},
  "deployedLinkReferences": {}
}